{
	"contracts/ExtraStorage.sol": {
		"ExtraStorage": {
			"abi": [
				{
					"inputs": [
						{
							"internalType": "string",
							"name": "_name",
							"type": "string"
						},
						{
							"internalType": "uint256",
							"name": "_favoriteNumber",
							"type": "uint256"
						}
					],
					"name": "addPerson",
					"outputs": [],
					"stateMutability": "nonpayable",
					"type": "function"
				},
				{
					"inputs": [
						{
							"internalType": "string",
							"name": "",
							"type": "string"
						}
					],
					"name": "nameToFavoriteNumber",
					"outputs": [
						{
							"internalType": "uint256",
							"name": "",
							"type": "uint256"
						}
					],
					"stateMutability": "view",
					"type": "function"
				},
				{
					"inputs": [
						{
							"internalType": "uint256",
							"name": "",
							"type": "uint256"
						}
					],
					"name": "people",
					"outputs": [
						{
							"internalType": "uint256",
							"name": "favoriteNumber",
							"type": "uint256"
						},
						{
							"internalType": "string",
							"name": "name",
							"type": "string"
						}
					],
					"stateMutability": "view",
					"type": "function"
				},
				{
					"inputs": [],
					"name": "retrieve",
					"outputs": [
						{
							"internalType": "uint256",
							"name": "",
							"type": "uint256"
						}
					],
					"stateMutability": "view",
					"type": "function"
				},
				{
					"inputs": [
						{
							"internalType": "uint256",
							"name": "_favoriteNumber",
							"type": "uint256"
						}
					],
					"name": "store",
					"outputs": [],
					"stateMutability": "nonpayable",
					"type": "function"
				},
				{
					"inputs": [
						{
							"internalType": "uint256",
							"name": "_favoriteNumber",
							"type": "uint256"
						},
						{
							"internalType": "uint256",
							"name": "_increment",
							"type": "uint256"
						}
					],
					"name": "storeIncremented",
					"outputs": [],
					"stateMutability": "nonpayable",
					"type": "function"
				}
			],
			"devdoc": {
				"kind": "dev",
				"methods": {},
				"version": 1
			},
			"evm": {
				"assembly": "    /* \"contracts/ExtraStorage.sol\":96:427  contract ExtraStorage is Storage {... */\n  mstore(0x40, 0x80)\n  callvalue\n  dup1\n  iszero\n  tag_1\n  jumpi\n  0x00\n  dup1\n  revert\ntag_1:\n  pop\n  dataSize(sub_0)\n  dup1\n  dataOffset(sub_0)\n  0x00\n  codecopy\n  0x00\n  return\nstop\n\nsub_0: assembly {\n        /* \"contracts/ExtraStorage.sol\":96:427  contract ExtraStorage is Storage {... */\n      mstore(0x40, 0x80)\n      callvalue\n      dup1\n      iszero\n      tag_1\n      jumpi\n      0x00\n      dup1\n      revert\n    tag_1:\n      pop\n      jumpi(tag_2, lt(calldatasize, 0x04))\n      shr(0xe0, calldataload(0x00))\n      dup1\n      0x2e64cec1\n      eq\n      tag_3\n      jumpi\n      dup1\n      0x349fb93c\n      eq\n      tag_4\n      jumpi\n      dup1\n      0x6057361d\n      eq\n      tag_5\n      jumpi\n      dup1\n      0x6f760f41\n      eq\n      tag_6\n      jumpi\n      dup1\n      0x8bab8dd5\n      eq\n      tag_7\n      jumpi\n      dup1\n      0x9e7a13ad\n      eq\n      tag_8\n      jumpi\n    tag_2:\n      0x00\n      dup1\n      revert\n        /* \"contracts/Storage.sol\":520:607  function retrieve() public view returns(uint256) {... */\n    tag_3:\n      tag_9\n      tag_10\n      jump\t// in\n    tag_9:\n      mload(0x40)\n      tag_11\n      swap2\n      swap1\n      tag_12\n      jump\t// in\n    tag_11:\n      mload(0x40)\n      dup1\n      swap2\n      sub\n      swap1\n      return\n        /* \"contracts/ExtraStorage.sol\":272:425  function storeIncremented(uint256 _favoriteNumber, uint256 _increment) public {... */\n    tag_4:\n      tag_13\n      0x04\n      dup1\n      calldatasize\n      sub\n      dup2\n      add\n      swap1\n      tag_14\n      swap2\n      swap1\n      tag_15\n      jump\t// in\n    tag_14:\n      tag_16\n      jump\t// in\n    tag_13:\n      stop\n        /* \"contracts/ExtraStorage.sol\":135:240  function store(uint256 _favoriteNumber) public override {... */\n    tag_5:\n      tag_17\n      0x04\n      dup1\n      calldatasize\n      sub\n      dup2\n      add\n      swap1\n      tag_18\n      swap2\n      swap1\n      tag_19\n      jump\t// in\n    tag_18:\n      tag_20\n      jump\t// in\n    tag_17:\n      stop\n        /* \"contracts/Storage.sol\":613:868  function addPerson(string memory _name, uint256 _favoriteNumber) public{... */\n    tag_6:\n      tag_21\n      0x04\n      dup1\n      calldatasize\n      sub\n      dup2\n      add\n      swap1\n      tag_22\n      swap2\n      swap1\n      tag_23\n      jump\t// in\n    tag_22:\n      tag_24\n      jump\t// in\n    tag_21:\n      stop\n        /* \"contracts/Storage.sol\":320:374  mapping(string => uint256) public nameToFavoriteNumber */\n    tag_7:\n      tag_25\n      0x04\n      dup1\n      calldatasize\n      sub\n      dup2\n      add\n      swap1\n      tag_26\n      swap2\n      swap1\n      tag_27\n      jump\t// in\n    tag_26:\n      tag_28\n      jump\t// in\n    tag_25:\n      mload(0x40)\n      tag_29\n      swap2\n      swap1\n      tag_12\n      jump\t// in\n    tag_29:\n      mload(0x40)\n      dup1\n      swap2\n      sub\n      swap1\n      return\n        /* \"contracts/Storage.sol\":381:403  People[] public people */\n    tag_8:\n      tag_30\n      0x04\n      dup1\n      calldatasize\n      sub\n      dup2\n      add\n      swap1\n      tag_31\n      swap2\n      swap1\n      tag_19\n      jump\t// in\n    tag_31:\n      tag_32\n      jump\t// in\n    tag_30:\n      mload(0x40)\n      tag_33\n      swap3\n      swap2\n      swap1\n      tag_34\n      jump\t// in\n    tag_33:\n      mload(0x40)\n      dup1\n      swap2\n      sub\n      swap1\n      return\n        /* \"contracts/Storage.sol\":520:607  function retrieve() public view returns(uint256) {... */\n    tag_10:\n        /* \"contracts/Storage.sol\":560:567  uint256 */\n      0x00\n        /* \"contracts/Storage.sol\":586:600  favoriteNumber */\n      dup1\n      sload\n        /* \"contracts/Storage.sol\":579:600  return favoriteNumber */\n      swap1\n      pop\n        /* \"contracts/Storage.sol\":520:607  function retrieve() public view returns(uint256) {... */\n      swap1\n      jump\t// out\n        /* \"contracts/ExtraStorage.sol\":272:425  function storeIncremented(uint256 _favoriteNumber, uint256 _increment) public {... */\n    tag_16:\n        /* \"contracts/ExtraStorage.sol\":360:369  uint256 n */\n      0x00\n        /* \"contracts/ExtraStorage.sol\":390:400  _increment */\n      dup2\n        /* \"contracts/ExtraStorage.sol\":372:387  _favoriteNumber */\n      dup4\n        /* \"contracts/ExtraStorage.sol\":372:400  _favoriteNumber * _increment */\n      tag_37\n      swap2\n      swap1\n      tag_38\n      jump\t// in\n    tag_37:\n        /* \"contracts/ExtraStorage.sol\":360:400  uint256 n = _favoriteNumber * _increment */\n      swap1\n      pop\n        /* \"contracts/ExtraStorage.sol\":410:418  store(n) */\n      tag_39\n        /* \"contracts/ExtraStorage.sol\":416:417  n */\n      dup2\n        /* \"contracts/ExtraStorage.sol\":410:415  store */\n      tag_20\n        /* \"contracts/ExtraStorage.sol\":410:418  store(n) */\n      jump\t// in\n    tag_39:\n        /* \"contracts/ExtraStorage.sol\":350:425  {... */\n      pop\n        /* \"contracts/ExtraStorage.sol\":272:425  function storeIncremented(uint256 _favoriteNumber, uint256 _increment) public {... */\n      pop\n      pop\n      jump\t// out\n        /* \"contracts/ExtraStorage.sol\":135:240  function store(uint256 _favoriteNumber) public override {... */\n    tag_20:\n        /* \"contracts/ExtraStorage.sol\":218:233  _favoriteNumber */\n      dup1\n        /* \"contracts/ExtraStorage.sol\":201:215  favoriteNumber */\n      0x00\n        /* \"contracts/ExtraStorage.sol\":201:233  favoriteNumber = _favoriteNumber */\n      dup2\n      swap1\n      sstore\n      pop\n        /* \"contracts/ExtraStorage.sol\":135:240  function store(uint256 _favoriteNumber) public override {... */\n      pop\n      jump\t// out\n        /* \"contracts/Storage.sol\":613:868  function addPerson(string memory _name, uint256 _favoriteNumber) public{... */\n    tag_24:\n        /* \"contracts/Storage.sol\":694:700  people */\n      0x02\n        /* \"contracts/Storage.sol\":706:735  People(_favoriteNumber,_name) */\n      mload(0x40)\n      dup1\n      0x40\n      add\n      0x40\n      mstore\n      dup1\n        /* \"contracts/Storage.sol\":713:728  _favoriteNumber */\n      dup4\n        /* \"contracts/Storage.sol\":706:735  People(_favoriteNumber,_name) */\n      dup2\n      mstore\n      0x20\n      add\n        /* \"contracts/Storage.sol\":729:734  _name */\n      dup5\n        /* \"contracts/Storage.sol\":706:735  People(_favoriteNumber,_name) */\n      dup2\n      mstore\n      pop\n        /* \"contracts/Storage.sol\":694:736  people.push(People(_favoriteNumber,_name)) */\n      swap1\n      dup1\n      0x01\n      dup2\n      sload\n      add\n      dup1\n      dup3\n      sstore\n      dup1\n      swap2\n      pop\n      pop\n      0x01\n      swap1\n      sub\n      swap1\n      0x00\n      mstore\n      keccak256(0x00, 0x20)\n      swap1\n      0x02\n      mul\n      add\n      0x00\n      swap1\n      swap2\n      swap1\n      swap2\n      swap1\n      swap2\n      pop\n      0x00\n      dup3\n      add\n      mload\n      dup2\n      0x00\n      add\n      sstore\n      0x20\n      dup3\n      add\n      mload\n      dup2\n      0x01\n      add\n      swap1\n      dup1\n      mload\n      swap1\n      0x20\n      add\n      swap1\n      tag_43\n      swap3\n      swap2\n      swap1\n      tag_44\n      jump\t// in\n    tag_43:\n      pop\n      pop\n      pop\n        /* \"contracts/Storage.sol\":846:861  _favoriteNumber */\n      dup1\n        /* \"contracts/Storage.sol\":816:836  nameToFavoriteNumber */\n      0x01\n        /* \"contracts/Storage.sol\":837:842  _name */\n      dup4\n        /* \"contracts/Storage.sol\":816:843  nameToFavoriteNumber[_name] */\n      mload(0x40)\n      tag_45\n      swap2\n      swap1\n      tag_46\n      jump\t// in\n    tag_45:\n      swap1\n      dup2\n      mstore\n      0x20\n      add\n      mload(0x40)\n      dup1\n      swap2\n      sub\n      swap1\n      keccak256\n        /* \"contracts/Storage.sol\":816:861  nameToFavoriteNumber[_name] = _favoriteNumber */\n      dup2\n      swap1\n      sstore\n      pop\n        /* \"contracts/Storage.sol\":613:868  function addPerson(string memory _name, uint256 _favoriteNumber) public{... */\n      pop\n      pop\n      jump\t// out\n        /* \"contracts/Storage.sol\":320:374  mapping(string => uint256) public nameToFavoriteNumber */\n    tag_28:\n      0x01\n      dup2\n      dup1\n      mload\n      0x20\n      dup2\n      add\n      dup3\n      add\n      dup1\n      mload\n      dup5\n      dup3\n      mstore\n      0x20\n      dup4\n      add\n      0x20\n      dup6\n      add\n      keccak256\n      dup2\n      dup4\n      mstore\n      dup1\n      swap6\n      pop\n      pop\n      pop\n      pop\n      pop\n      pop\n      0x00\n      swap2\n      pop\n      swap1\n      pop\n      sload\n      dup2\n      jump\t// out\n        /* \"contracts/Storage.sol\":381:403  People[] public people */\n    tag_32:\n      0x02\n      dup2\n      dup2\n      sload\n      dup2\n      lt\n      tag_47\n      jumpi\n      0x00\n      dup1\n      revert\n    tag_47:\n      swap1\n      0x00\n      mstore\n      keccak256(0x00, 0x20)\n      swap1\n      0x02\n      mul\n      add\n      0x00\n      swap2\n      pop\n      swap1\n      pop\n      dup1\n      0x00\n      add\n      sload\n      swap1\n      dup1\n      0x01\n      add\n      dup1\n      sload\n      tag_49\n      swap1\n      tag_50\n      jump\t// in\n    tag_49:\n      dup1\n      0x1f\n      add\n      0x20\n      dup1\n      swap2\n      div\n      mul\n      0x20\n      add\n      mload(0x40)\n      swap1\n      dup2\n      add\n      0x40\n      mstore\n      dup1\n      swap3\n      swap2\n      swap1\n      dup2\n      dup2\n      mstore\n      0x20\n      add\n      dup3\n      dup1\n      sload\n      tag_51\n      swap1\n      tag_50\n      jump\t// in\n    tag_51:\n      dup1\n      iszero\n      tag_52\n      jumpi\n      dup1\n      0x1f\n      lt\n      tag_53\n      jumpi\n      0x0100\n      dup1\n      dup4\n      sload\n      div\n      mul\n      dup4\n      mstore\n      swap2\n      0x20\n      add\n      swap2\n      jump(tag_52)\n    tag_53:\n      dup3\n      add\n      swap2\n      swap1\n      0x00\n      mstore\n      keccak256(0x00, 0x20)\n      swap1\n    tag_54:\n      dup2\n      sload\n      dup2\n      mstore\n      swap1\n      0x01\n      add\n      swap1\n      0x20\n      add\n      dup1\n      dup4\n      gt\n      tag_54\n      jumpi\n      dup3\n      swap1\n      sub\n      0x1f\n      and\n      dup3\n      add\n      swap2\n    tag_52:\n      pop\n      pop\n      pop\n      pop\n      pop\n      swap1\n      pop\n      dup3\n      jump\t// out\n    tag_44:\n      dup3\n      dup1\n      sload\n      tag_55\n      swap1\n      tag_50\n      jump\t// in\n    tag_55:\n      swap1\n      0x00\n      mstore\n      keccak256(0x00, 0x20)\n      swap1\n      0x1f\n      add\n      0x20\n      swap1\n      div\n      dup2\n      add\n      swap3\n      dup3\n      tag_57\n      jumpi\n      0x00\n      dup6\n      sstore\n      jump(tag_56)\n    tag_57:\n      dup3\n      0x1f\n      lt\n      tag_58\n      jumpi\n      dup1\n      mload\n      not(0xff)\n      and\n      dup4\n      dup1\n      add\n      or\n      dup6\n      sstore\n      jump(tag_56)\n    tag_58:\n      dup3\n      dup1\n      add\n      0x01\n      add\n      dup6\n      sstore\n      dup3\n      iszero\n      tag_56\n      jumpi\n      swap2\n      dup3\n      add\n    tag_59:\n      dup3\n      dup2\n      gt\n      iszero\n      tag_60\n      jumpi\n      dup3\n      mload\n      dup3\n      sstore\n      swap2\n      0x20\n      add\n      swap2\n      swap1\n      0x01\n      add\n      swap1\n      jump(tag_59)\n    tag_60:\n    tag_56:\n      pop\n      swap1\n      pop\n      tag_61\n      swap2\n      swap1\n      tag_62\n      jump\t// in\n    tag_61:\n      pop\n      swap1\n      jump\t// out\n    tag_62:\n    tag_63:\n      dup1\n      dup3\n      gt\n      iszero\n      tag_64\n      jumpi\n      0x00\n      dup2\n      0x00\n      swap1\n      sstore\n      pop\n      0x01\n      add\n      jump(tag_63)\n    tag_64:\n      pop\n      swap1\n      jump\t// out\n        /* \"#utility.yul\":7:84   */\n    tag_65:\n        /* \"#utility.yul\":44:51   */\n      0x00\n        /* \"#utility.yul\":73:78   */\n      dup2\n        /* \"#utility.yul\":62:78   */\n      swap1\n      pop\n        /* \"#utility.yul\":7:84   */\n      swap2\n      swap1\n      pop\n      jump\t// out\n        /* \"#utility.yul\":90:208   */\n    tag_66:\n        /* \"#utility.yul\":177:201   */\n      tag_93\n        /* \"#utility.yul\":195:200   */\n      dup2\n        /* \"#utility.yul\":177:201   */\n      tag_65\n      jump\t// in\n    tag_93:\n        /* \"#utility.yul\":172:175   */\n      dup3\n        /* \"#utility.yul\":165:202   */\n      mstore\n        /* \"#utility.yul\":90:208   */\n      pop\n      pop\n      jump\t// out\n        /* \"#utility.yul\":214:436   */\n    tag_12:\n        /* \"#utility.yul\":307:311   */\n      0x00\n        /* \"#utility.yul\":345:347   */\n      0x20\n        /* \"#utility.yul\":334:343   */\n      dup3\n        /* \"#utility.yul\":330:348   */\n      add\n        /* \"#utility.yul\":322:348   */\n      swap1\n      pop\n        /* \"#utility.yul\":358:429   */\n      tag_95\n        /* \"#utility.yul\":426:427   */\n      0x00\n        /* \"#utility.yul\":415:424   */\n      dup4\n        /* \"#utility.yul\":411:428   */\n      add\n        /* \"#utility.yul\":402:408   */\n      dup5\n        /* \"#utility.yul\":358:429   */\n      tag_66\n      jump\t// in\n    tag_95:\n        /* \"#utility.yul\":214:436   */\n      swap3\n      swap2\n      pop\n      pop\n      jump\t// out\n        /* \"#utility.yul\":442:517   */\n    tag_67:\n        /* \"#utility.yul\":475:481   */\n      0x00\n        /* \"#utility.yul\":508:510   */\n      0x40\n        /* \"#utility.yul\":502:511   */\n      mload\n        /* \"#utility.yul\":492:511   */\n      swap1\n      pop\n        /* \"#utility.yul\":442:517   */\n      swap1\n      jump\t// out\n        /* \"#utility.yul\":523:640   */\n    tag_68:\n        /* \"#utility.yul\":632:633   */\n      0x00\n        /* \"#utility.yul\":629:630   */\n      dup1\n        /* \"#utility.yul\":622:634   */\n      revert\n        /* \"#utility.yul\":646:763   */\n    tag_69:\n        /* \"#utility.yul\":755:756   */\n      0x00\n        /* \"#utility.yul\":752:753   */\n      dup1\n        /* \"#utility.yul\":745:757   */\n      revert\n        /* \"#utility.yul\":769:891   */\n    tag_70:\n        /* \"#utility.yul\":842:866   */\n      tag_100\n        /* \"#utility.yul\":860:865   */\n      dup2\n        /* \"#utility.yul\":842:866   */\n      tag_65\n      jump\t// in\n    tag_100:\n        /* \"#utility.yul\":835:840   */\n      dup2\n        /* \"#utility.yul\":832:867   */\n      eq\n        /* \"#utility.yul\":822:885   */\n      tag_101\n      jumpi\n        /* \"#utility.yul\":881:882   */\n      0x00\n        /* \"#utility.yul\":878:879   */\n      dup1\n        /* \"#utility.yul\":871:883   */\n      revert\n        /* \"#utility.yul\":822:885   */\n    tag_101:\n        /* \"#utility.yul\":769:891   */\n      pop\n      jump\t// out\n        /* \"#utility.yul\":897:1036   */\n    tag_71:\n        /* \"#utility.yul\":943:948   */\n      0x00\n        /* \"#utility.yul\":981:987   */\n      dup2\n        /* \"#utility.yul\":968:988   */\n      calldataload\n        /* \"#utility.yul\":959:988   */\n      swap1\n      pop\n        /* \"#utility.yul\":997:1030   */\n      tag_103\n        /* \"#utility.yul\":1024:1029   */\n      dup2\n        /* \"#utility.yul\":997:1030   */\n      tag_70\n      jump\t// in\n    tag_103:\n        /* \"#utility.yul\":897:1036   */\n      swap3\n      swap2\n      pop\n      pop\n      jump\t// out\n        /* \"#utility.yul\":1042:1516   */\n    tag_15:\n        /* \"#utility.yul\":1110:1116   */\n      0x00\n        /* \"#utility.yul\":1118:1124   */\n      dup1\n        /* \"#utility.yul\":1167:1169   */\n      0x40\n        /* \"#utility.yul\":1155:1164   */\n      dup4\n        /* \"#utility.yul\":1146:1153   */\n      dup6\n        /* \"#utility.yul\":1142:1165   */\n      sub\n        /* \"#utility.yul\":1138:1170   */\n      slt\n        /* \"#utility.yul\":1135:1254   */\n      iszero\n      tag_105\n      jumpi\n        /* \"#utility.yul\":1173:1252   */\n      tag_106\n      tag_68\n      jump\t// in\n    tag_106:\n        /* \"#utility.yul\":1135:1254   */\n    tag_105:\n        /* \"#utility.yul\":1293:1294   */\n      0x00\n        /* \"#utility.yul\":1318:1371   */\n      tag_107\n        /* \"#utility.yul\":1363:1370   */\n      dup6\n        /* \"#utility.yul\":1354:1360   */\n      dup3\n        /* \"#utility.yul\":1343:1352   */\n      dup7\n        /* \"#utility.yul\":1339:1361   */\n      add\n        /* \"#utility.yul\":1318:1371   */\n      tag_71\n      jump\t// in\n    tag_107:\n        /* \"#utility.yul\":1308:1371   */\n      swap3\n      pop\n        /* \"#utility.yul\":1264:1381   */\n      pop\n        /* \"#utility.yul\":1420:1422   */\n      0x20\n        /* \"#utility.yul\":1446:1499   */\n      tag_108\n        /* \"#utility.yul\":1491:1498   */\n      dup6\n        /* \"#utility.yul\":1482:1488   */\n      dup3\n        /* \"#utility.yul\":1471:1480   */\n      dup7\n        /* \"#utility.yul\":1467:1489   */\n      add\n        /* \"#utility.yul\":1446:1499   */\n      tag_71\n      jump\t// in\n    tag_108:\n        /* \"#utility.yul\":1436:1499   */\n      swap2\n      pop\n        /* \"#utility.yul\":1391:1509   */\n      pop\n        /* \"#utility.yul\":1042:1516   */\n      swap3\n      pop\n      swap3\n      swap1\n      pop\n      jump\t// out\n        /* \"#utility.yul\":1522:1851   */\n    tag_19:\n        /* \"#utility.yul\":1581:1587   */\n      0x00\n        /* \"#utility.yul\":1630:1632   */\n      0x20\n        /* \"#utility.yul\":1618:1627   */\n      dup3\n        /* \"#utility.yul\":1609:1616   */\n      dup5\n        /* \"#utility.yul\":1605:1628   */\n      sub\n        /* \"#utility.yul\":1601:1633   */\n      slt\n        /* \"#utility.yul\":1598:1717   */\n      iszero\n      tag_110\n      jumpi\n        /* \"#utility.yul\":1636:1715   */\n      tag_111\n      tag_68\n      jump\t// in\n    tag_111:\n        /* \"#utility.yul\":1598:1717   */\n    tag_110:\n        /* \"#utility.yul\":1756:1757   */\n      0x00\n        /* \"#utility.yul\":1781:1834   */\n      tag_112\n        /* \"#utility.yul\":1826:1833   */\n      dup5\n        /* \"#utility.yul\":1817:1823   */\n      dup3\n        /* \"#utility.yul\":1806:1815   */\n      dup6\n        /* \"#utility.yul\":1802:1824   */\n      add\n        /* \"#utility.yul\":1781:1834   */\n      tag_71\n      jump\t// in\n    tag_112:\n        /* \"#utility.yul\":1771:1834   */\n      swap2\n      pop\n        /* \"#utility.yul\":1727:1844   */\n      pop\n        /* \"#utility.yul\":1522:1851   */\n      swap3\n      swap2\n      pop\n      pop\n      jump\t// out\n        /* \"#utility.yul\":1857:1974   */\n    tag_72:\n        /* \"#utility.yul\":1966:1967   */\n      0x00\n        /* \"#utility.yul\":1963:1964   */\n      dup1\n        /* \"#utility.yul\":1956:1968   */\n      revert\n        /* \"#utility.yul\":1980:2097   */\n    tag_73:\n        /* \"#utility.yul\":2089:2090   */\n      0x00\n        /* \"#utility.yul\":2086:2087   */\n      dup1\n        /* \"#utility.yul\":2079:2091   */\n      revert\n        /* \"#utility.yul\":2103:2205   */\n    tag_74:\n        /* \"#utility.yul\":2144:2150   */\n      0x00\n        /* \"#utility.yul\":2195:2197   */\n      0x1f\n        /* \"#utility.yul\":2191:2198   */\n      not\n        /* \"#utility.yul\":2186:2188   */\n      0x1f\n        /* \"#utility.yul\":2179:2184   */\n      dup4\n        /* \"#utility.yul\":2175:2189   */\n      add\n        /* \"#utility.yul\":2171:2199   */\n      and\n        /* \"#utility.yul\":2161:2199   */\n      swap1\n      pop\n        /* \"#utility.yul\":2103:2205   */\n      swap2\n      swap1\n      pop\n      jump\t// out\n        /* \"#utility.yul\":2211:2391   */\n    tag_75:\n        /* \"#utility.yul\":2259:2336   */\n      0x4e487b7100000000000000000000000000000000000000000000000000000000\n        /* \"#utility.yul\":2256:2257   */\n      0x00\n        /* \"#utility.yul\":2249:2337   */\n      mstore\n        /* \"#utility.yul\":2356:2360   */\n      0x41\n        /* \"#utility.yul\":2353:2354   */\n      0x04\n        /* \"#utility.yul\":2346:2361   */\n      mstore\n        /* \"#utility.yul\":2380:2384   */\n      0x24\n        /* \"#utility.yul\":2377:2378   */\n      0x00\n        /* \"#utility.yul\":2370:2385   */\n      revert\n        /* \"#utility.yul\":2397:2678   */\n    tag_76:\n        /* \"#utility.yul\":2480:2507   */\n      tag_118\n        /* \"#utility.yul\":2502:2506   */\n      dup3\n        /* \"#utility.yul\":2480:2507   */\n      tag_74\n      jump\t// in\n    tag_118:\n        /* \"#utility.yul\":2472:2478   */\n      dup2\n        /* \"#utility.yul\":2468:2508   */\n      add\n        /* \"#utility.yul\":2610:2616   */\n      dup2\n        /* \"#utility.yul\":2598:2608   */\n      dup2\n        /* \"#utility.yul\":2595:2617   */\n      lt\n        /* \"#utility.yul\":2574:2592   */\n      0xffffffffffffffff\n        /* \"#utility.yul\":2562:2572   */\n      dup3\n        /* \"#utility.yul\":2559:2593   */\n      gt\n        /* \"#utility.yul\":2556:2618   */\n      or\n        /* \"#utility.yul\":2553:2641   */\n      iszero\n      tag_119\n      jumpi\n        /* \"#utility.yul\":2621:2639   */\n      tag_120\n      tag_75\n      jump\t// in\n    tag_120:\n        /* \"#utility.yul\":2553:2641   */\n    tag_119:\n        /* \"#utility.yul\":2661:2671   */\n      dup1\n        /* \"#utility.yul\":2657:2659   */\n      0x40\n        /* \"#utility.yul\":2650:2672   */\n      mstore\n        /* \"#utility.yul\":2440:2678   */\n      pop\n        /* \"#utility.yul\":2397:2678   */\n      pop\n      pop\n      jump\t// out\n        /* \"#utility.yul\":2684:2813   */\n    tag_77:\n        /* \"#utility.yul\":2718:2724   */\n      0x00\n        /* \"#utility.yul\":2745:2765   */\n      tag_122\n      tag_67\n      jump\t// in\n    tag_122:\n        /* \"#utility.yul\":2735:2765   */\n      swap1\n      pop\n        /* \"#utility.yul\":2774:2807   */\n      tag_123\n        /* \"#utility.yul\":2802:2806   */\n      dup3\n        /* \"#utility.yul\":2794:2800   */\n      dup3\n        /* \"#utility.yul\":2774:2807   */\n      tag_76\n      jump\t// in\n    tag_123:\n        /* \"#utility.yul\":2684:2813   */\n      swap2\n      swap1\n      pop\n      jump\t// out\n        /* \"#utility.yul\":2819:3127   */\n    tag_78:\n        /* \"#utility.yul\":2881:2885   */\n      0x00\n        /* \"#utility.yul\":2971:2989   */\n      0xffffffffffffffff\n        /* \"#utility.yul\":2963:2969   */\n      dup3\n        /* \"#utility.yul\":2960:2990   */\n      gt\n        /* \"#utility.yul\":2957:3013   */\n      iszero\n      tag_125\n      jumpi\n        /* \"#utility.yul\":2993:3011   */\n      tag_126\n      tag_75\n      jump\t// in\n    tag_126:\n        /* \"#utility.yul\":2957:3013   */\n    tag_125:\n        /* \"#utility.yul\":3031:3060   */\n      tag_127\n        /* \"#utility.yul\":3053:3059   */\n      dup3\n        /* \"#utility.yul\":3031:3060   */\n      tag_74\n      jump\t// in\n    tag_127:\n        /* \"#utility.yul\":3023:3060   */\n      swap1\n      pop\n        /* \"#utility.yul\":3115:3119   */\n      0x20\n        /* \"#utility.yul\":3109:3113   */\n      dup2\n        /* \"#utility.yul\":3105:3120   */\n      add\n        /* \"#utility.yul\":3097:3120   */\n      swap1\n      pop\n        /* \"#utility.yul\":2819:3127   */\n      swap2\n      swap1\n      pop\n      jump\t// out\n        /* \"#utility.yul\":3133:3287   */\n    tag_79:\n        /* \"#utility.yul\":3217:3223   */\n      dup3\n        /* \"#utility.yul\":3212:3215   */\n      dup2\n        /* \"#utility.yul\":3207:3210   */\n      dup4\n        /* \"#utility.yul\":3194:3224   */\n      calldatacopy\n        /* \"#utility.yul\":3279:3280   */\n      0x00\n        /* \"#utility.yul\":3270:3276   */\n      dup4\n        /* \"#utility.yul\":3265:3268   */\n      dup4\n        /* \"#utility.yul\":3261:3277   */\n      add\n        /* \"#utility.yul\":3254:3281   */\n      mstore\n        /* \"#utility.yul\":3133:3287   */\n      pop\n      pop\n      pop\n      jump\t// out\n        /* \"#utility.yul\":3293:3705   */\n    tag_80:\n        /* \"#utility.yul\":3371:3376   */\n      0x00\n        /* \"#utility.yul\":3396:3462   */\n      tag_130\n        /* \"#utility.yul\":3412:3461   */\n      tag_131\n        /* \"#utility.yul\":3454:3460   */\n      dup5\n        /* \"#utility.yul\":3412:3461   */\n      tag_78\n      jump\t// in\n    tag_131:\n        /* \"#utility.yul\":3396:3462   */\n      tag_77\n      jump\t// in\n    tag_130:\n        /* \"#utility.yul\":3387:3462   */\n      swap1\n      pop\n        /* \"#utility.yul\":3485:3491   */\n      dup3\n        /* \"#utility.yul\":3478:3483   */\n      dup2\n        /* \"#utility.yul\":3471:3492   */\n      mstore\n        /* \"#utility.yul\":3523:3527   */\n      0x20\n        /* \"#utility.yul\":3516:3521   */\n      dup2\n        /* \"#utility.yul\":3512:3528   */\n      add\n        /* \"#utility.yul\":3561:3564   */\n      dup5\n        /* \"#utility.yul\":3552:3558   */\n      dup5\n        /* \"#utility.yul\":3547:3550   */\n      dup5\n        /* \"#utility.yul\":3543:3559   */\n      add\n        /* \"#utility.yul\":3540:3565   */\n      gt\n        /* \"#utility.yul\":3537:3649   */\n      iszero\n      tag_132\n      jumpi\n        /* \"#utility.yul\":3568:3647   */\n      tag_133\n      tag_73\n      jump\t// in\n    tag_133:\n        /* \"#utility.yul\":3537:3649   */\n    tag_132:\n        /* \"#utility.yul\":3658:3699   */\n      tag_134\n        /* \"#utility.yul\":3692:3698   */\n      dup5\n        /* \"#utility.yul\":3687:3690   */\n      dup3\n        /* \"#utility.yul\":3682:3685   */\n      dup6\n        /* \"#utility.yul\":3658:3699   */\n      tag_79\n      jump\t// in\n    tag_134:\n        /* \"#utility.yul\":3377:3705   */\n      pop\n        /* \"#utility.yul\":3293:3705   */\n      swap4\n      swap3\n      pop\n      pop\n      pop\n      jump\t// out\n        /* \"#utility.yul\":3725:4065   */\n    tag_81:\n        /* \"#utility.yul\":3781:3786   */\n      0x00\n        /* \"#utility.yul\":3830:3833   */\n      dup3\n        /* \"#utility.yul\":3823:3827   */\n      0x1f\n        /* \"#utility.yul\":3815:3821   */\n      dup4\n        /* \"#utility.yul\":3811:3828   */\n      add\n        /* \"#utility.yul\":3807:3834   */\n      slt\n        /* \"#utility.yul\":3797:3919   */\n      tag_136\n      jumpi\n        /* \"#utility.yul\":3838:3917   */\n      tag_137\n      tag_72\n      jump\t// in\n    tag_137:\n        /* \"#utility.yul\":3797:3919   */\n    tag_136:\n        /* \"#utility.yul\":3955:3961   */\n      dup2\n        /* \"#utility.yul\":3942:3962   */\n      calldataload\n        /* \"#utility.yul\":3980:4059   */\n      tag_138\n        /* \"#utility.yul\":4055:4058   */\n      dup5\n        /* \"#utility.yul\":4047:4053   */\n      dup3\n        /* \"#utility.yul\":4040:4044   */\n      0x20\n        /* \"#utility.yul\":4032:4038   */\n      dup7\n        /* \"#utility.yul\":4028:4045   */\n      add\n        /* \"#utility.yul\":3980:4059   */\n      tag_80\n      jump\t// in\n    tag_138:\n        /* \"#utility.yul\":3971:4059   */\n      swap2\n      pop\n        /* \"#utility.yul\":3787:4065   */\n      pop\n        /* \"#utility.yul\":3725:4065   */\n      swap3\n      swap2\n      pop\n      pop\n      jump\t// out\n        /* \"#utility.yul\":4071:4725   */\n    tag_23:\n        /* \"#utility.yul\":4149:4155   */\n      0x00\n        /* \"#utility.yul\":4157:4163   */\n      dup1\n        /* \"#utility.yul\":4206:4208   */\n      0x40\n        /* \"#utility.yul\":4194:4203   */\n      dup4\n        /* \"#utility.yul\":4185:4192   */\n      dup6\n        /* \"#utility.yul\":4181:4204   */\n      sub\n        /* \"#utility.yul\":4177:4209   */\n      slt\n        /* \"#utility.yul\":4174:4293   */\n      iszero\n      tag_140\n      jumpi\n        /* \"#utility.yul\":4212:4291   */\n      tag_141\n      tag_68\n      jump\t// in\n    tag_141:\n        /* \"#utility.yul\":4174:4293   */\n    tag_140:\n        /* \"#utility.yul\":4360:4361   */\n      0x00\n        /* \"#utility.yul\":4349:4358   */\n      dup4\n        /* \"#utility.yul\":4345:4362   */\n      add\n        /* \"#utility.yul\":4332:4363   */\n      calldataload\n        /* \"#utility.yul\":4390:4408   */\n      0xffffffffffffffff\n        /* \"#utility.yul\":4382:4388   */\n      dup2\n        /* \"#utility.yul\":4379:4409   */\n      gt\n        /* \"#utility.yul\":4376:4493   */\n      iszero\n      tag_142\n      jumpi\n        /* \"#utility.yul\":4412:4491   */\n      tag_143\n      tag_69\n      jump\t// in\n    tag_143:\n        /* \"#utility.yul\":4376:4493   */\n    tag_142:\n        /* \"#utility.yul\":4517:4580   */\n      tag_144\n        /* \"#utility.yul\":4572:4579   */\n      dup6\n        /* \"#utility.yul\":4563:4569   */\n      dup3\n        /* \"#utility.yul\":4552:4561   */\n      dup7\n        /* \"#utility.yul\":4548:4570   */\n      add\n        /* \"#utility.yul\":4517:4580   */\n      tag_81\n      jump\t// in\n    tag_144:\n        /* \"#utility.yul\":4507:4580   */\n      swap3\n      pop\n        /* \"#utility.yul\":4303:4590   */\n      pop\n        /* \"#utility.yul\":4629:4631   */\n      0x20\n        /* \"#utility.yul\":4655:4708   */\n      tag_145\n        /* \"#utility.yul\":4700:4707   */\n      dup6\n        /* \"#utility.yul\":4691:4697   */\n      dup3\n        /* \"#utility.yul\":4680:4689   */\n      dup7\n        /* \"#utility.yul\":4676:4698   */\n      add\n        /* \"#utility.yul\":4655:4708   */\n      tag_71\n      jump\t// in\n    tag_145:\n        /* \"#utility.yul\":4645:4708   */\n      swap2\n      pop\n        /* \"#utility.yul\":4600:4718   */\n      pop\n        /* \"#utility.yul\":4071:4725   */\n      swap3\n      pop\n      swap3\n      swap1\n      pop\n      jump\t// out\n        /* \"#utility.yul\":4731:5240   */\n    tag_27:\n        /* \"#utility.yul\":4800:4806   */\n      0x00\n        /* \"#utility.yul\":4849:4851   */\n      0x20\n        /* \"#utility.yul\":4837:4846   */\n      dup3\n        /* \"#utility.yul\":4828:4835   */\n      dup5\n        /* \"#utility.yul\":4824:4847   */\n      sub\n        /* \"#utility.yul\":4820:4852   */\n      slt\n        /* \"#utility.yul\":4817:4936   */\n      iszero\n      tag_147\n      jumpi\n        /* \"#utility.yul\":4855:4934   */\n      tag_148\n      tag_68\n      jump\t// in\n    tag_148:\n        /* \"#utility.yul\":4817:4936   */\n    tag_147:\n        /* \"#utility.yul\":5003:5004   */\n      0x00\n        /* \"#utility.yul\":4992:5001   */\n      dup3\n        /* \"#utility.yul\":4988:5005   */\n      add\n        /* \"#utility.yul\":4975:5006   */\n      calldataload\n        /* \"#utility.yul\":5033:5051   */\n      0xffffffffffffffff\n        /* \"#utility.yul\":5025:5031   */\n      dup2\n        /* \"#utility.yul\":5022:5052   */\n      gt\n        /* \"#utility.yul\":5019:5136   */\n      iszero\n      tag_149\n      jumpi\n        /* \"#utility.yul\":5055:5134   */\n      tag_150\n      tag_69\n      jump\t// in\n    tag_150:\n        /* \"#utility.yul\":5019:5136   */\n    tag_149:\n        /* \"#utility.yul\":5160:5223   */\n      tag_151\n        /* \"#utility.yul\":5215:5222   */\n      dup5\n        /* \"#utility.yul\":5206:5212   */\n      dup3\n        /* \"#utility.yul\":5195:5204   */\n      dup6\n        /* \"#utility.yul\":5191:5213   */\n      add\n        /* \"#utility.yul\":5160:5223   */\n      tag_81\n      jump\t// in\n    tag_151:\n        /* \"#utility.yul\":5150:5223   */\n      swap2\n      pop\n        /* \"#utility.yul\":4946:5233   */\n      pop\n        /* \"#utility.yul\":4731:5240   */\n      swap3\n      swap2\n      pop\n      pop\n      jump\t// out\n        /* \"#utility.yul\":5246:5345   */\n    tag_82:\n        /* \"#utility.yul\":5298:5304   */\n      0x00\n        /* \"#utility.yul\":5332:5337   */\n      dup2\n        /* \"#utility.yul\":5326:5338   */\n      mload\n        /* \"#utility.yul\":5316:5338   */\n      swap1\n      pop\n        /* \"#utility.yul\":5246:5345   */\n      swap2\n      swap1\n      pop\n      jump\t// out\n        /* \"#utility.yul\":5351:5520   */\n    tag_83:\n        /* \"#utility.yul\":5435:5446   */\n      0x00\n        /* \"#utility.yul\":5469:5475   */\n      dup3\n        /* \"#utility.yul\":5464:5467   */\n      dup3\n        /* \"#utility.yul\":5457:5476   */\n      mstore\n        /* \"#utility.yul\":5509:5513   */\n      0x20\n        /* \"#utility.yul\":5504:5507   */\n      dup3\n        /* \"#utility.yul\":5500:5514   */\n      add\n        /* \"#utility.yul\":5485:5514   */\n      swap1\n      pop\n        /* \"#utility.yul\":5351:5520   */\n      swap3\n      swap2\n      pop\n      pop\n      jump\t// out\n        /* \"#utility.yul\":5526:5833   */\n    tag_84:\n        /* \"#utility.yul\":5594:5595   */\n      0x00\n        /* \"#utility.yul\":5604:5717   */\n    tag_155:\n        /* \"#utility.yul\":5618:5624   */\n      dup4\n        /* \"#utility.yul\":5615:5616   */\n      dup2\n        /* \"#utility.yul\":5612:5625   */\n      lt\n        /* \"#utility.yul\":5604:5717   */\n      iszero\n      tag_157\n      jumpi\n        /* \"#utility.yul\":5703:5704   */\n      dup1\n        /* \"#utility.yul\":5698:5701   */\n      dup3\n        /* \"#utility.yul\":5694:5705   */\n      add\n        /* \"#utility.yul\":5688:5706   */\n      mload\n        /* \"#utility.yul\":5684:5685   */\n      dup2\n        /* \"#utility.yul\":5679:5682   */\n      dup5\n        /* \"#utility.yul\":5675:5686   */\n      add\n        /* \"#utility.yul\":5668:5707   */\n      mstore\n        /* \"#utility.yul\":5640:5642   */\n      0x20\n        /* \"#utility.yul\":5637:5638   */\n      dup2\n        /* \"#utility.yul\":5633:5643   */\n      add\n        /* \"#utility.yul\":5628:5643   */\n      swap1\n      pop\n        /* \"#utility.yul\":5604:5717   */\n      jump(tag_155)\n    tag_157:\n        /* \"#utility.yul\":5735:5741   */\n      dup4\n        /* \"#utility.yul\":5732:5733   */\n      dup2\n        /* \"#utility.yul\":5729:5742   */\n      gt\n        /* \"#utility.yul\":5726:5827   */\n      iszero\n      tag_158\n      jumpi\n        /* \"#utility.yul\":5815:5816   */\n      0x00\n        /* \"#utility.yul\":5806:5812   */\n      dup5\n        /* \"#utility.yul\":5801:5804   */\n      dup5\n        /* \"#utility.yul\":5797:5813   */\n      add\n        /* \"#utility.yul\":5790:5817   */\n      mstore\n        /* \"#utility.yul\":5726:5827   */\n    tag_158:\n        /* \"#utility.yul\":5575:5833   */\n      pop\n        /* \"#utility.yul\":5526:5833   */\n      pop\n      pop\n      pop\n      jump\t// out\n        /* \"#utility.yul\":5839:6203   */\n    tag_85:\n        /* \"#utility.yul\":5927:5930   */\n      0x00\n        /* \"#utility.yul\":5955:5994   */\n      tag_160\n        /* \"#utility.yul\":5988:5993   */\n      dup3\n        /* \"#utility.yul\":5955:5994   */\n      tag_82\n      jump\t// in\n    tag_160:\n        /* \"#utility.yul\":6010:6081   */\n      tag_161\n        /* \"#utility.yul\":6074:6080   */\n      dup2\n        /* \"#utility.yul\":6069:6072   */\n      dup6\n        /* \"#utility.yul\":6010:6081   */\n      tag_83\n      jump\t// in\n    tag_161:\n        /* \"#utility.yul\":6003:6081   */\n      swap4\n      pop\n        /* \"#utility.yul\":6090:6142   */\n      tag_162\n        /* \"#utility.yul\":6135:6141   */\n      dup2\n        /* \"#utility.yul\":6130:6133   */\n      dup6\n        /* \"#utility.yul\":6123:6127   */\n      0x20\n        /* \"#utility.yul\":6116:6121   */\n      dup7\n        /* \"#utility.yul\":6112:6128   */\n      add\n        /* \"#utility.yul\":6090:6142   */\n      tag_84\n      jump\t// in\n    tag_162:\n        /* \"#utility.yul\":6167:6196   */\n      tag_163\n        /* \"#utility.yul\":6189:6195   */\n      dup2\n        /* \"#utility.yul\":6167:6196   */\n      tag_74\n      jump\t// in\n    tag_163:\n        /* \"#utility.yul\":6162:6165   */\n      dup5\n        /* \"#utility.yul\":6158:6197   */\n      add\n        /* \"#utility.yul\":6151:6197   */\n      swap2\n      pop\n        /* \"#utility.yul\":5931:6203   */\n      pop\n        /* \"#utility.yul\":5839:6203   */\n      swap3\n      swap2\n      pop\n      pop\n      jump\t// out\n        /* \"#utility.yul\":6209:6632   */\n    tag_34:\n        /* \"#utility.yul\":6350:6354   */\n      0x00\n        /* \"#utility.yul\":6388:6390   */\n      0x40\n        /* \"#utility.yul\":6377:6386   */\n      dup3\n        /* \"#utility.yul\":6373:6391   */\n      add\n        /* \"#utility.yul\":6365:6391   */\n      swap1\n      pop\n        /* \"#utility.yul\":6401:6472   */\n      tag_165\n        /* \"#utility.yul\":6469:6470   */\n      0x00\n        /* \"#utility.yul\":6458:6467   */\n      dup4\n        /* \"#utility.yul\":6454:6471   */\n      add\n        /* \"#utility.yul\":6445:6451   */\n      dup6\n        /* \"#utility.yul\":6401:6472   */\n      tag_66\n      jump\t// in\n    tag_165:\n        /* \"#utility.yul\":6519:6528   */\n      dup2\n        /* \"#utility.yul\":6513:6517   */\n      dup2\n        /* \"#utility.yul\":6509:6529   */\n      sub\n        /* \"#utility.yul\":6504:6506   */\n      0x20\n        /* \"#utility.yul\":6493:6502   */\n      dup4\n        /* \"#utility.yul\":6489:6507   */\n      add\n        /* \"#utility.yul\":6482:6530   */\n      mstore\n        /* \"#utility.yul\":6547:6625   */\n      tag_166\n        /* \"#utility.yul\":6620:6624   */\n      dup2\n        /* \"#utility.yul\":6611:6617   */\n      dup5\n        /* \"#utility.yul\":6547:6625   */\n      tag_85\n      jump\t// in\n    tag_166:\n        /* \"#utility.yul\":6539:6625   */\n      swap1\n      pop\n        /* \"#utility.yul\":6209:6632   */\n      swap4\n      swap3\n      pop\n      pop\n      pop\n      jump\t// out\n        /* \"#utility.yul\":6638:6818   */\n    tag_86:\n        /* \"#utility.yul\":6686:6763   */\n      0x4e487b7100000000000000000000000000000000000000000000000000000000\n        /* \"#utility.yul\":6683:6684   */\n      0x00\n        /* \"#utility.yul\":6676:6764   */\n      mstore\n        /* \"#utility.yul\":6783:6787   */\n      0x11\n        /* \"#utility.yul\":6780:6781   */\n      0x04\n        /* \"#utility.yul\":6773:6788   */\n      mstore\n        /* \"#utility.yul\":6807:6811   */\n      0x24\n        /* \"#utility.yul\":6804:6805   */\n      0x00\n        /* \"#utility.yul\":6797:6812   */\n      revert\n        /* \"#utility.yul\":6824:7172   */\n    tag_38:\n        /* \"#utility.yul\":6864:6871   */\n      0x00\n        /* \"#utility.yul\":6887:6907   */\n      tag_169\n        /* \"#utility.yul\":6905:6906   */\n      dup3\n        /* \"#utility.yul\":6887:6907   */\n      tag_65\n      jump\t// in\n    tag_169:\n        /* \"#utility.yul\":6882:6907   */\n      swap2\n      pop\n        /* \"#utility.yul\":6921:6941   */\n      tag_170\n        /* \"#utility.yul\":6939:6940   */\n      dup4\n        /* \"#utility.yul\":6921:6941   */\n      tag_65\n      jump\t// in\n    tag_170:\n        /* \"#utility.yul\":6916:6941   */\n      swap3\n      pop\n        /* \"#utility.yul\":7109:7110   */\n      dup2\n        /* \"#utility.yul\":7041:7107   */\n      0xffffffffffffffffffffffffffffffffffffffffffffffffffffffffffffffff\n        /* \"#utility.yul\":7037:7111   */\n      div\n        /* \"#utility.yul\":7034:7035   */\n      dup4\n        /* \"#utility.yul\":7031:7112   */\n      gt\n        /* \"#utility.yul\":7026:7027   */\n      dup3\n        /* \"#utility.yul\":7019:7028   */\n      iszero\n        /* \"#utility.yul\":7012:7029   */\n      iszero\n        /* \"#utility.yul\":7008:7113   */\n      and\n        /* \"#utility.yul\":7005:7136   */\n      iszero\n      tag_171\n      jumpi\n        /* \"#utility.yul\":7116:7134   */\n      tag_172\n      tag_86\n      jump\t// in\n    tag_172:\n        /* \"#utility.yul\":7005:7136   */\n    tag_171:\n        /* \"#utility.yul\":7164:7165   */\n      dup3\n        /* \"#utility.yul\":7161:7162   */\n      dup3\n        /* \"#utility.yul\":7157:7166   */\n      mul\n        /* \"#utility.yul\":7146:7166   */\n      swap1\n      pop\n        /* \"#utility.yul\":6824:7172   */\n      swap3\n      swap2\n      pop\n      pop\n      jump\t// out\n        /* \"#utility.yul\":7178:7326   */\n    tag_87:\n        /* \"#utility.yul\":7280:7291   */\n      0x00\n        /* \"#utility.yul\":7317:7320   */\n      dup2\n        /* \"#utility.yul\":7302:7320   */\n      swap1\n      pop\n        /* \"#utility.yul\":7178:7326   */\n      swap3\n      swap2\n      pop\n      pop\n      jump\t// out\n        /* \"#utility.yul\":7332:7709   */\n    tag_88:\n        /* \"#utility.yul\":7438:7441   */\n      0x00\n        /* \"#utility.yul\":7466:7505   */\n      tag_175\n        /* \"#utility.yul\":7499:7504   */\n      dup3\n        /* \"#utility.yul\":7466:7505   */\n      tag_82\n      jump\t// in\n    tag_175:\n        /* \"#utility.yul\":7521:7610   */\n      tag_176\n        /* \"#utility.yul\":7603:7609   */\n      dup2\n        /* \"#utility.yul\":7598:7601   */\n      dup6\n        /* \"#utility.yul\":7521:7610   */\n      tag_87\n      jump\t// in\n    tag_176:\n        /* \"#utility.yul\":7514:7610   */\n      swap4\n      pop\n        /* \"#utility.yul\":7619:7671   */\n      tag_177\n        /* \"#utility.yul\":7664:7670   */\n      dup2\n        /* \"#utility.yul\":7659:7662   */\n      dup6\n        /* \"#utility.yul\":7652:7656   */\n      0x20\n        /* \"#utility.yul\":7645:7650   */\n      dup7\n        /* \"#utility.yul\":7641:7657   */\n      add\n        /* \"#utility.yul\":7619:7671   */\n      tag_84\n      jump\t// in\n    tag_177:\n        /* \"#utility.yul\":7696:7702   */\n      dup1\n        /* \"#utility.yul\":7691:7694   */\n      dup5\n        /* \"#utility.yul\":7687:7703   */\n      add\n        /* \"#utility.yul\":7680:7703   */\n      swap2\n      pop\n        /* \"#utility.yul\":7442:7709   */\n      pop\n        /* \"#utility.yul\":7332:7709   */\n      swap3\n      swap2\n      pop\n      pop\n      jump\t// out\n        /* \"#utility.yul\":7715:7990   */\n    tag_46:\n        /* \"#utility.yul\":7847:7850   */\n      0x00\n        /* \"#utility.yul\":7869:7964   */\n      tag_179\n        /* \"#utility.yul\":7960:7963   */\n      dup3\n        /* \"#utility.yul\":7951:7957   */\n      dup5\n        /* \"#utility.yul\":7869:7964   */\n      tag_88\n      jump\t// in\n    tag_179:\n        /* \"#utility.yul\":7862:7964   */\n      swap2\n      pop\n        /* \"#utility.yul\":7981:7984   */\n      dup2\n        /* \"#utility.yul\":7974:7984   */\n      swap1\n      pop\n        /* \"#utility.yul\":7715:7990   */\n      swap3\n      swap2\n      pop\n      pop\n      jump\t// out\n        /* \"#utility.yul\":7996:8176   */\n    tag_89:\n        /* \"#utility.yul\":8044:8121   */\n      0x4e487b7100000000000000000000000000000000000000000000000000000000\n        /* \"#utility.yul\":8041:8042   */\n      0x00\n        /* \"#utility.yul\":8034:8122   */\n      mstore\n        /* \"#utility.yul\":8141:8145   */\n      0x22\n        /* \"#utility.yul\":8138:8139   */\n      0x04\n        /* \"#utility.yul\":8131:8146   */\n      mstore\n        /* \"#utility.yul\":8165:8169   */\n      0x24\n        /* \"#utility.yul\":8162:8163   */\n      0x00\n        /* \"#utility.yul\":8155:8170   */\n      revert\n        /* \"#utility.yul\":8182:8502   */\n    tag_50:\n        /* \"#utility.yul\":8226:8232   */\n      0x00\n        /* \"#utility.yul\":8263:8264   */\n      0x02\n        /* \"#utility.yul\":8257:8261   */\n      dup3\n        /* \"#utility.yul\":8253:8265   */\n      div\n        /* \"#utility.yul\":8243:8265   */\n      swap1\n      pop\n        /* \"#utility.yul\":8310:8311   */\n      0x01\n        /* \"#utility.yul\":8304:8308   */\n      dup3\n        /* \"#utility.yul\":8300:8312   */\n      and\n        /* \"#utility.yul\":8331:8349   */\n      dup1\n        /* \"#utility.yul\":8321:8402   */\n      tag_182\n      jumpi\n        /* \"#utility.yul\":8387:8391   */\n      0x7f\n        /* \"#utility.yul\":8379:8385   */\n      dup3\n        /* \"#utility.yul\":8375:8392   */\n      and\n        /* \"#utility.yul\":8365:8392   */\n      swap2\n      pop\n        /* \"#utility.yul\":8321:8402   */\n    tag_182:\n        /* \"#utility.yul\":8449:8451   */\n      0x20\n        /* \"#utility.yul\":8441:8447   */\n      dup3\n        /* \"#utility.yul\":8438:8452   */\n      lt\n        /* \"#utility.yul\":8418:8436   */\n      dup2\n        /* \"#utility.yul\":8415:8453   */\n      eq\n        /* \"#utility.yul\":8412:8496   */\n      iszero\n      tag_183\n      jumpi\n        /* \"#utility.yul\":8468:8486   */\n      tag_184\n      tag_89\n      jump\t// in\n    tag_184:\n        /* \"#utility.yul\":8412:8496   */\n    tag_183:\n        /* \"#utility.yul\":8233:8502   */\n      pop\n        /* \"#utility.yul\":8182:8502   */\n      swap2\n      swap1\n      pop\n      jump\t// out\n\n    auxdata: 0xa26469706673582212205c245def75f25909684031fd9609ec8cf7fafb42b98d34f1cf27579135be7bff64736f6c63430008080033\n}\n",
				"bytecode": {
					"linkReferences": {},
					"object": "608060405234801561001057600080fd5b5061087f806100206000396000f3fe608060405234801561001057600080fd5b50600436106100625760003560e01c80632e64cec114610067578063349fb93c146100855780636057361d146100a15780636f760f41146100bd5780638bab8dd5146100d95780639e7a13ad14610109575b600080fd5b61006f61013a565b60405161007c91906103a1565b60405180910390f35b61009f600480360381019061009a91906103fc565b610143565b005b6100bb60048036038101906100b6919061043c565b610161565b005b6100d760048036038101906100d291906105af565b61016b565b005b6100f360048036038101906100ee919061060b565b6101fb565b60405161010091906103a1565b60405180910390f35b610123600480360381019061011e919061043c565b610229565b6040516101319291906106dc565b60405180910390f35b60008054905090565b60008183610151919061073b565b905061015c81610161565b505050565b8060008190555050565b600260405180604001604052808381526020018481525090806001815401808255809150506001900390600052602060002090600202016000909190919091506000820151816000015560208201518160010190805190602001906101d19291906102e5565b505050806001836040516101e591906107d1565b9081526020016040518091039020819055505050565b6001818051602081018201805184825260208301602085012081835280955050505050506000915090505481565b6002818154811061023957600080fd5b906000526020600020906002020160009150905080600001549080600101805461026290610817565b80601f016020809104026020016040519081016040528092919081815260200182805461028e90610817565b80156102db5780601f106102b0576101008083540402835291602001916102db565b820191906000526020600020905b8154815290600101906020018083116102be57829003601f168201915b5050505050905082565b8280546102f190610817565b90600052602060002090601f016020900481019282610313576000855561035a565b82601f1061032c57805160ff191683800117855561035a565b8280016001018555821561035a579182015b8281111561035957825182559160200191906001019061033e565b5b509050610367919061036b565b5090565b5b8082111561038457600081600090555060010161036c565b5090565b6000819050919050565b61039b81610388565b82525050565b60006020820190506103b66000830184610392565b92915050565b6000604051905090565b600080fd5b600080fd5b6103d981610388565b81146103e457600080fd5b50565b6000813590506103f6816103d0565b92915050565b60008060408385031215610413576104126103c6565b5b6000610421858286016103e7565b9250506020610432858286016103e7565b9150509250929050565b600060208284031215610452576104516103c6565b5b6000610460848285016103e7565b91505092915050565b600080fd5b600080fd5b6000601f19601f8301169050919050565b7f4e487b7100000000000000000000000000000000000000000000000000000000600052604160045260246000fd5b6104bc82610473565b810181811067ffffffffffffffff821117156104db576104da610484565b5b80604052505050565b60006104ee6103bc565b90506104fa82826104b3565b919050565b600067ffffffffffffffff82111561051a57610519610484565b5b61052382610473565b9050602081019050919050565b82818337600083830152505050565b600061055261054d846104ff565b6104e4565b90508281526020810184848401111561056e5761056d61046e565b5b610579848285610530565b509392505050565b600082601f83011261059657610595610469565b5b81356105a684826020860161053f565b91505092915050565b600080604083850312156105c6576105c56103c6565b5b600083013567ffffffffffffffff8111156105e4576105e36103cb565b5b6105f085828601610581565b9250506020610601858286016103e7565b9150509250929050565b600060208284031215610621576106206103c6565b5b600082013567ffffffffffffffff81111561063f5761063e6103cb565b5b61064b84828501610581565b91505092915050565b600081519050919050565b600082825260208201905092915050565b60005b8381101561068e578082015181840152602081019050610673565b8381111561069d576000848401525b50505050565b60006106ae82610654565b6106b8818561065f565b93506106c8818560208601610670565b6106d181610473565b840191505092915050565b60006040820190506106f16000830185610392565b818103602083015261070381846106a3565b90509392505050565b7f4e487b7100000000000000000000000000000000000000000000000000000000600052601160045260246000fd5b600061074682610388565b915061075183610388565b9250817fffffffffffffffffffffffffffffffffffffffffffffffffffffffffffffffff048311821515161561078a5761078961070c565b5b828202905092915050565b600081905092915050565b60006107ab82610654565b6107b58185610795565b93506107c5818560208601610670565b80840191505092915050565b60006107dd82846107a0565b915081905092915050565b7f4e487b7100000000000000000000000000000000000000000000000000000000600052602260045260246000fd5b6000600282049050600182168061082f57607f821691505b60208210811415610843576108426107e8565b5b5091905056fea26469706673582212205c245def75f25909684031fd9609ec8cf7fafb42b98d34f1cf27579135be7bff64736f6c63430008080033",
					"opcodes": "PUSH1 0x80 PUSH1 0x40 MSTORE CALLVALUE DUP1 ISZERO PUSH2 0x10 JUMPI PUSH1 0x0 DUP1 REVERT JUMPDEST POP PUSH2 0x87F DUP1 PUSH2 0x20 PUSH1 0x0 CODECOPY PUSH1 0x0 RETURN INVALID PUSH1 0x80 PUSH1 0x40 MSTORE CALLVALUE DUP1 ISZERO PUSH2 0x10 JUMPI PUSH1 0x0 DUP1 REVERT JUMPDEST POP PUSH1 0x4 CALLDATASIZE LT PUSH2 0x62 JUMPI PUSH1 0x0 CALLDATALOAD PUSH1 0xE0 SHR DUP1 PUSH4 0x2E64CEC1 EQ PUSH2 0x67 JUMPI DUP1 PUSH4 0x349FB93C EQ PUSH2 0x85 JUMPI DUP1 PUSH4 0x6057361D EQ PUSH2 0xA1 JUMPI DUP1 PUSH4 0x6F760F41 EQ PUSH2 0xBD JUMPI DUP1 PUSH4 0x8BAB8DD5 EQ PUSH2 0xD9 JUMPI DUP1 PUSH4 0x9E7A13AD EQ PUSH2 0x109 JUMPI JUMPDEST PUSH1 0x0 DUP1 REVERT JUMPDEST PUSH2 0x6F PUSH2 0x13A JUMP JUMPDEST PUSH1 0x40 MLOAD PUSH2 0x7C SWAP2 SWAP1 PUSH2 0x3A1 JUMP JUMPDEST PUSH1 0x40 MLOAD DUP1 SWAP2 SUB SWAP1 RETURN JUMPDEST PUSH2 0x9F PUSH1 0x4 DUP1 CALLDATASIZE SUB DUP2 ADD SWAP1 PUSH2 0x9A SWAP2 SWAP1 PUSH2 0x3FC JUMP JUMPDEST PUSH2 0x143 JUMP JUMPDEST STOP JUMPDEST PUSH2 0xBB PUSH1 0x4 DUP1 CALLDATASIZE SUB DUP2 ADD SWAP1 PUSH2 0xB6 SWAP2 SWAP1 PUSH2 0x43C JUMP JUMPDEST PUSH2 0x161 JUMP JUMPDEST STOP JUMPDEST PUSH2 0xD7 PUSH1 0x4 DUP1 CALLDATASIZE SUB DUP2 ADD SWAP1 PUSH2 0xD2 SWAP2 SWAP1 PUSH2 0x5AF JUMP JUMPDEST PUSH2 0x16B JUMP JUMPDEST STOP JUMPDEST PUSH2 0xF3 PUSH1 0x4 DUP1 CALLDATASIZE SUB DUP2 ADD SWAP1 PUSH2 0xEE SWAP2 SWAP1 PUSH2 0x60B JUMP JUMPDEST PUSH2 0x1FB JUMP JUMPDEST PUSH1 0x40 MLOAD PUSH2 0x100 SWAP2 SWAP1 PUSH2 0x3A1 JUMP JUMPDEST PUSH1 0x40 MLOAD DUP1 SWAP2 SUB SWAP1 RETURN JUMPDEST PUSH2 0x123 PUSH1 0x4 DUP1 CALLDATASIZE SUB DUP2 ADD SWAP1 PUSH2 0x11E SWAP2 SWAP1 PUSH2 0x43C JUMP JUMPDEST PUSH2 0x229 JUMP JUMPDEST PUSH1 0x40 MLOAD PUSH2 0x131 SWAP3 SWAP2 SWAP1 PUSH2 0x6DC JUMP JUMPDEST PUSH1 0x40 MLOAD DUP1 SWAP2 SUB SWAP1 RETURN JUMPDEST PUSH1 0x0 DUP1 SLOAD SWAP1 POP SWAP1 JUMP JUMPDEST PUSH1 0x0 DUP2 DUP4 PUSH2 0x151 SWAP2 SWAP1 PUSH2 0x73B JUMP JUMPDEST SWAP1 POP PUSH2 0x15C DUP2 PUSH2 0x161 JUMP JUMPDEST POP POP POP JUMP JUMPDEST DUP1 PUSH1 0x0 DUP2 SWAP1 SSTORE POP POP JUMP JUMPDEST PUSH1 0x2 PUSH1 0x40 MLOAD DUP1 PUSH1 0x40 ADD PUSH1 0x40 MSTORE DUP1 DUP4 DUP2 MSTORE PUSH1 0x20 ADD DUP5 DUP2 MSTORE POP SWAP1 DUP1 PUSH1 0x1 DUP2 SLOAD ADD DUP1 DUP3 SSTORE DUP1 SWAP2 POP POP PUSH1 0x1 SWAP1 SUB SWAP1 PUSH1 0x0 MSTORE PUSH1 0x20 PUSH1 0x0 KECCAK256 SWAP1 PUSH1 0x2 MUL ADD PUSH1 0x0 SWAP1 SWAP2 SWAP1 SWAP2 SWAP1 SWAP2 POP PUSH1 0x0 DUP3 ADD MLOAD DUP2 PUSH1 0x0 ADD SSTORE PUSH1 0x20 DUP3 ADD MLOAD DUP2 PUSH1 0x1 ADD SWAP1 DUP1 MLOAD SWAP1 PUSH1 0x20 ADD SWAP1 PUSH2 0x1D1 SWAP3 SWAP2 SWAP1 PUSH2 0x2E5 JUMP JUMPDEST POP POP POP DUP1 PUSH1 0x1 DUP4 PUSH1 0x40 MLOAD PUSH2 0x1E5 SWAP2 SWAP1 PUSH2 0x7D1 JUMP JUMPDEST SWAP1 DUP2 MSTORE PUSH1 0x20 ADD PUSH1 0x40 MLOAD DUP1 SWAP2 SUB SWAP1 KECCAK256 DUP2 SWAP1 SSTORE POP POP POP JUMP JUMPDEST PUSH1 0x1 DUP2 DUP1 MLOAD PUSH1 0x20 DUP2 ADD DUP3 ADD DUP1 MLOAD DUP5 DUP3 MSTORE PUSH1 0x20 DUP4 ADD PUSH1 0x20 DUP6 ADD KECCAK256 DUP2 DUP4 MSTORE DUP1 SWAP6 POP POP POP POP POP POP PUSH1 0x0 SWAP2 POP SWAP1 POP SLOAD DUP2 JUMP JUMPDEST PUSH1 0x2 DUP2 DUP2 SLOAD DUP2 LT PUSH2 0x239 JUMPI PUSH1 0x0 DUP1 REVERT JUMPDEST SWAP1 PUSH1 0x0 MSTORE PUSH1 0x20 PUSH1 0x0 KECCAK256 SWAP1 PUSH1 0x2 MUL ADD PUSH1 0x0 SWAP2 POP SWAP1 POP DUP1 PUSH1 0x0 ADD SLOAD SWAP1 DUP1 PUSH1 0x1 ADD DUP1 SLOAD PUSH2 0x262 SWAP1 PUSH2 0x817 JUMP JUMPDEST DUP1 PUSH1 0x1F ADD PUSH1 0x20 DUP1 SWAP2 DIV MUL PUSH1 0x20 ADD PUSH1 0x40 MLOAD SWAP1 DUP2 ADD PUSH1 0x40 MSTORE DUP1 SWAP3 SWAP2 SWAP1 DUP2 DUP2 MSTORE PUSH1 0x20 ADD DUP3 DUP1 SLOAD PUSH2 0x28E SWAP1 PUSH2 0x817 JUMP JUMPDEST DUP1 ISZERO PUSH2 0x2DB JUMPI DUP1 PUSH1 0x1F LT PUSH2 0x2B0 JUMPI PUSH2 0x100 DUP1 DUP4 SLOAD DIV MUL DUP4 MSTORE SWAP2 PUSH1 0x20 ADD SWAP2 PUSH2 0x2DB JUMP JUMPDEST DUP3 ADD SWAP2 SWAP1 PUSH1 0x0 MSTORE PUSH1 0x20 PUSH1 0x0 KECCAK256 SWAP1 JUMPDEST DUP2 SLOAD DUP2 MSTORE SWAP1 PUSH1 0x1 ADD SWAP1 PUSH1 0x20 ADD DUP1 DUP4 GT PUSH2 0x2BE JUMPI DUP3 SWAP1 SUB PUSH1 0x1F AND DUP3 ADD SWAP2 JUMPDEST POP POP POP POP POP SWAP1 POP DUP3 JUMP JUMPDEST DUP3 DUP1 SLOAD PUSH2 0x2F1 SWAP1 PUSH2 0x817 JUMP JUMPDEST SWAP1 PUSH1 0x0 MSTORE PUSH1 0x20 PUSH1 0x0 KECCAK256 SWAP1 PUSH1 0x1F ADD PUSH1 0x20 SWAP1 DIV DUP2 ADD SWAP3 DUP3 PUSH2 0x313 JUMPI PUSH1 0x0 DUP6 SSTORE PUSH2 0x35A JUMP JUMPDEST DUP3 PUSH1 0x1F LT PUSH2 0x32C JUMPI DUP1 MLOAD PUSH1 0xFF NOT AND DUP4 DUP1 ADD OR DUP6 SSTORE PUSH2 0x35A JUMP JUMPDEST DUP3 DUP1 ADD PUSH1 0x1 ADD DUP6 SSTORE DUP3 ISZERO PUSH2 0x35A JUMPI SWAP2 DUP3 ADD JUMPDEST DUP3 DUP2 GT ISZERO PUSH2 0x359 JUMPI DUP3 MLOAD DUP3 SSTORE SWAP2 PUSH1 0x20 ADD SWAP2 SWAP1 PUSH1 0x1 ADD SWAP1 PUSH2 0x33E JUMP JUMPDEST JUMPDEST POP SWAP1 POP PUSH2 0x367 SWAP2 SWAP1 PUSH2 0x36B JUMP JUMPDEST POP SWAP1 JUMP JUMPDEST JUMPDEST DUP1 DUP3 GT ISZERO PUSH2 0x384 JUMPI PUSH1 0x0 DUP2 PUSH1 0x0 SWAP1 SSTORE POP PUSH1 0x1 ADD PUSH2 0x36C JUMP JUMPDEST POP SWAP1 JUMP JUMPDEST PUSH1 0x0 DUP2 SWAP1 POP SWAP2 SWAP1 POP JUMP JUMPDEST PUSH2 0x39B DUP2 PUSH2 0x388 JUMP JUMPDEST DUP3 MSTORE POP POP JUMP JUMPDEST PUSH1 0x0 PUSH1 0x20 DUP3 ADD SWAP1 POP PUSH2 0x3B6 PUSH1 0x0 DUP4 ADD DUP5 PUSH2 0x392 JUMP JUMPDEST SWAP3 SWAP2 POP POP JUMP JUMPDEST PUSH1 0x0 PUSH1 0x40 MLOAD SWAP1 POP SWAP1 JUMP JUMPDEST PUSH1 0x0 DUP1 REVERT JUMPDEST PUSH1 0x0 DUP1 REVERT JUMPDEST PUSH2 0x3D9 DUP2 PUSH2 0x388 JUMP JUMPDEST DUP2 EQ PUSH2 0x3E4 JUMPI PUSH1 0x0 DUP1 REVERT JUMPDEST POP JUMP JUMPDEST PUSH1 0x0 DUP2 CALLDATALOAD SWAP1 POP PUSH2 0x3F6 DUP2 PUSH2 0x3D0 JUMP JUMPDEST SWAP3 SWAP2 POP POP JUMP JUMPDEST PUSH1 0x0 DUP1 PUSH1 0x40 DUP4 DUP6 SUB SLT ISZERO PUSH2 0x413 JUMPI PUSH2 0x412 PUSH2 0x3C6 JUMP JUMPDEST JUMPDEST PUSH1 0x0 PUSH2 0x421 DUP6 DUP3 DUP7 ADD PUSH2 0x3E7 JUMP JUMPDEST SWAP3 POP POP PUSH1 0x20 PUSH2 0x432 DUP6 DUP3 DUP7 ADD PUSH2 0x3E7 JUMP JUMPDEST SWAP2 POP POP SWAP3 POP SWAP3 SWAP1 POP JUMP JUMPDEST PUSH1 0x0 PUSH1 0x20 DUP3 DUP5 SUB SLT ISZERO PUSH2 0x452 JUMPI PUSH2 0x451 PUSH2 0x3C6 JUMP JUMPDEST JUMPDEST PUSH1 0x0 PUSH2 0x460 DUP5 DUP3 DUP6 ADD PUSH2 0x3E7 JUMP JUMPDEST SWAP2 POP POP SWAP3 SWAP2 POP POP JUMP JUMPDEST PUSH1 0x0 DUP1 REVERT JUMPDEST PUSH1 0x0 DUP1 REVERT JUMPDEST PUSH1 0x0 PUSH1 0x1F NOT PUSH1 0x1F DUP4 ADD AND SWAP1 POP SWAP2 SWAP1 POP JUMP JUMPDEST PUSH32 0x4E487B7100000000000000000000000000000000000000000000000000000000 PUSH1 0x0 MSTORE PUSH1 0x41 PUSH1 0x4 MSTORE PUSH1 0x24 PUSH1 0x0 REVERT JUMPDEST PUSH2 0x4BC DUP3 PUSH2 0x473 JUMP JUMPDEST DUP2 ADD DUP2 DUP2 LT PUSH8 0xFFFFFFFFFFFFFFFF DUP3 GT OR ISZERO PUSH2 0x4DB JUMPI PUSH2 0x4DA PUSH2 0x484 JUMP JUMPDEST JUMPDEST DUP1 PUSH1 0x40 MSTORE POP POP POP JUMP JUMPDEST PUSH1 0x0 PUSH2 0x4EE PUSH2 0x3BC JUMP JUMPDEST SWAP1 POP PUSH2 0x4FA DUP3 DUP3 PUSH2 0x4B3 JUMP JUMPDEST SWAP2 SWAP1 POP JUMP JUMPDEST PUSH1 0x0 PUSH8 0xFFFFFFFFFFFFFFFF DUP3 GT ISZERO PUSH2 0x51A JUMPI PUSH2 0x519 PUSH2 0x484 JUMP JUMPDEST JUMPDEST PUSH2 0x523 DUP3 PUSH2 0x473 JUMP JUMPDEST SWAP1 POP PUSH1 0x20 DUP2 ADD SWAP1 POP SWAP2 SWAP1 POP JUMP JUMPDEST DUP3 DUP2 DUP4 CALLDATACOPY PUSH1 0x0 DUP4 DUP4 ADD MSTORE POP POP POP JUMP JUMPDEST PUSH1 0x0 PUSH2 0x552 PUSH2 0x54D DUP5 PUSH2 0x4FF JUMP JUMPDEST PUSH2 0x4E4 JUMP JUMPDEST SWAP1 POP DUP3 DUP2 MSTORE PUSH1 0x20 DUP2 ADD DUP5 DUP5 DUP5 ADD GT ISZERO PUSH2 0x56E JUMPI PUSH2 0x56D PUSH2 0x46E JUMP JUMPDEST JUMPDEST PUSH2 0x579 DUP5 DUP3 DUP6 PUSH2 0x530 JUMP JUMPDEST POP SWAP4 SWAP3 POP POP POP JUMP JUMPDEST PUSH1 0x0 DUP3 PUSH1 0x1F DUP4 ADD SLT PUSH2 0x596 JUMPI PUSH2 0x595 PUSH2 0x469 JUMP JUMPDEST JUMPDEST DUP2 CALLDATALOAD PUSH2 0x5A6 DUP5 DUP3 PUSH1 0x20 DUP7 ADD PUSH2 0x53F JUMP JUMPDEST SWAP2 POP POP SWAP3 SWAP2 POP POP JUMP JUMPDEST PUSH1 0x0 DUP1 PUSH1 0x40 DUP4 DUP6 SUB SLT ISZERO PUSH2 0x5C6 JUMPI PUSH2 0x5C5 PUSH2 0x3C6 JUMP JUMPDEST JUMPDEST PUSH1 0x0 DUP4 ADD CALLDATALOAD PUSH8 0xFFFFFFFFFFFFFFFF DUP2 GT ISZERO PUSH2 0x5E4 JUMPI PUSH2 0x5E3 PUSH2 0x3CB JUMP JUMPDEST JUMPDEST PUSH2 0x5F0 DUP6 DUP3 DUP7 ADD PUSH2 0x581 JUMP JUMPDEST SWAP3 POP POP PUSH1 0x20 PUSH2 0x601 DUP6 DUP3 DUP7 ADD PUSH2 0x3E7 JUMP JUMPDEST SWAP2 POP POP SWAP3 POP SWAP3 SWAP1 POP JUMP JUMPDEST PUSH1 0x0 PUSH1 0x20 DUP3 DUP5 SUB SLT ISZERO PUSH2 0x621 JUMPI PUSH2 0x620 PUSH2 0x3C6 JUMP JUMPDEST JUMPDEST PUSH1 0x0 DUP3 ADD CALLDATALOAD PUSH8 0xFFFFFFFFFFFFFFFF DUP2 GT ISZERO PUSH2 0x63F JUMPI PUSH2 0x63E PUSH2 0x3CB JUMP JUMPDEST JUMPDEST PUSH2 0x64B DUP5 DUP3 DUP6 ADD PUSH2 0x581 JUMP JUMPDEST SWAP2 POP POP SWAP3 SWAP2 POP POP JUMP JUMPDEST PUSH1 0x0 DUP2 MLOAD SWAP1 POP SWAP2 SWAP1 POP JUMP JUMPDEST PUSH1 0x0 DUP3 DUP3 MSTORE PUSH1 0x20 DUP3 ADD SWAP1 POP SWAP3 SWAP2 POP POP JUMP JUMPDEST PUSH1 0x0 JUMPDEST DUP4 DUP2 LT ISZERO PUSH2 0x68E JUMPI DUP1 DUP3 ADD MLOAD DUP2 DUP5 ADD MSTORE PUSH1 0x20 DUP2 ADD SWAP1 POP PUSH2 0x673 JUMP JUMPDEST DUP4 DUP2 GT ISZERO PUSH2 0x69D JUMPI PUSH1 0x0 DUP5 DUP5 ADD MSTORE JUMPDEST POP POP POP POP JUMP JUMPDEST PUSH1 0x0 PUSH2 0x6AE DUP3 PUSH2 0x654 JUMP JUMPDEST PUSH2 0x6B8 DUP2 DUP6 PUSH2 0x65F JUMP JUMPDEST SWAP4 POP PUSH2 0x6C8 DUP2 DUP6 PUSH1 0x20 DUP7 ADD PUSH2 0x670 JUMP JUMPDEST PUSH2 0x6D1 DUP2 PUSH2 0x473 JUMP JUMPDEST DUP5 ADD SWAP2 POP POP SWAP3 SWAP2 POP POP JUMP JUMPDEST PUSH1 0x0 PUSH1 0x40 DUP3 ADD SWAP1 POP PUSH2 0x6F1 PUSH1 0x0 DUP4 ADD DUP6 PUSH2 0x392 JUMP JUMPDEST DUP2 DUP2 SUB PUSH1 0x20 DUP4 ADD MSTORE PUSH2 0x703 DUP2 DUP5 PUSH2 0x6A3 JUMP JUMPDEST SWAP1 POP SWAP4 SWAP3 POP POP POP JUMP JUMPDEST PUSH32 0x4E487B7100000000000000000000000000000000000000000000000000000000 PUSH1 0x0 MSTORE PUSH1 0x11 PUSH1 0x4 MSTORE PUSH1 0x24 PUSH1 0x0 REVERT JUMPDEST PUSH1 0x0 PUSH2 0x746 DUP3 PUSH2 0x388 JUMP JUMPDEST SWAP2 POP PUSH2 0x751 DUP4 PUSH2 0x388 JUMP JUMPDEST SWAP3 POP DUP2 PUSH32 0xFFFFFFFFFFFFFFFFFFFFFFFFFFFFFFFFFFFFFFFFFFFFFFFFFFFFFFFFFFFFFFFF DIV DUP4 GT DUP3 ISZERO ISZERO AND ISZERO PUSH2 0x78A JUMPI PUSH2 0x789 PUSH2 0x70C JUMP JUMPDEST JUMPDEST DUP3 DUP3 MUL SWAP1 POP SWAP3 SWAP2 POP POP JUMP JUMPDEST PUSH1 0x0 DUP2 SWAP1 POP SWAP3 SWAP2 POP POP JUMP JUMPDEST PUSH1 0x0 PUSH2 0x7AB DUP3 PUSH2 0x654 JUMP JUMPDEST PUSH2 0x7B5 DUP2 DUP6 PUSH2 0x795 JUMP JUMPDEST SWAP4 POP PUSH2 0x7C5 DUP2 DUP6 PUSH1 0x20 DUP7 ADD PUSH2 0x670 JUMP JUMPDEST DUP1 DUP5 ADD SWAP2 POP POP SWAP3 SWAP2 POP POP JUMP JUMPDEST PUSH1 0x0 PUSH2 0x7DD DUP3 DUP5 PUSH2 0x7A0 JUMP JUMPDEST SWAP2 POP DUP2 SWAP1 POP SWAP3 SWAP2 POP POP JUMP JUMPDEST PUSH32 0x4E487B7100000000000000000000000000000000000000000000000000000000 PUSH1 0x0 MSTORE PUSH1 0x22 PUSH1 0x4 MSTORE PUSH1 0x24 PUSH1 0x0 REVERT JUMPDEST PUSH1 0x0 PUSH1 0x2 DUP3 DIV SWAP1 POP PUSH1 0x1 DUP3 AND DUP1 PUSH2 0x82F JUMPI PUSH1 0x7F DUP3 AND SWAP2 POP JUMPDEST PUSH1 0x20 DUP3 LT DUP2 EQ ISZERO PUSH2 0x843 JUMPI PUSH2 0x842 PUSH2 0x7E8 JUMP JUMPDEST JUMPDEST POP SWAP2 SWAP1 POP JUMP INVALID LOG2 PUSH5 0x6970667358 0x22 SLT KECCAK256 0x5C 0x24 0x5D 0xEF PUSH22 0xF25909684031FD9609EC8CF7FAFB42B98D34F1CF2757 SWAP2 CALLDATALOAD 0xBE PUSH28 0xFF64736F6C6343000808003300000000000000000000000000000000 "
				},
				"gasEstimates": {
					"creation": {
						"codeDepositCost": "435000",
						"executionCost": "468",
						"totalCost": "435468"
					},
					"external": {
						"addPerson(string,uint256)": "infinite",
						"nameToFavoriteNumber(string)": "infinite",
						"people(uint256)": "infinite",
						"retrieve()": "2415",
						"store(uint256)": "22542",
						"storeIncremented(uint256,uint256)": "infinite"
					}
				},
				"methodIdentifiers": {
					"addPerson(string,uint256)": "6f760f41",
					"nameToFavoriteNumber(string)": "8bab8dd5",
					"people(uint256)": "9e7a13ad",
					"retrieve()": "2e64cec1",
					"store(uint256)": "6057361d",
					"storeIncremented(uint256,uint256)": "349fb93c"
				}
			},
			"storageLayout": {
				"storage": [
					{
						"astId": 38,
						"contract": "contracts/ExtraStorage.sol:ExtraStorage",
						"label": "favoriteNumber",
						"offset": 0,
						"slot": "0",
						"type": "t_uint256"
					},
					{
						"astId": 47,
						"contract": "contracts/ExtraStorage.sol:ExtraStorage",
						"label": "nameToFavoriteNumber",
						"offset": 0,
						"slot": "1",
						"type": "t_mapping(t_string_memory_ptr,t_uint256)"
					},
					{
						"astId": 51,
						"contract": "contracts/ExtraStorage.sol:ExtraStorage",
						"label": "people",
						"offset": 0,
						"slot": "2",
						"type": "t_array(t_struct(People)43_storage)dyn_storage"
					}
				],
				"types": {
					"t_array(t_struct(People)43_storage)dyn_storage": {
						"base": "t_struct(People)43_storage",
						"encoding": "dynamic_array",
						"label": "struct Storage.People[]",
						"numberOfBytes": "32"
					},
					"t_mapping(t_string_memory_ptr,t_uint256)": {
						"encoding": "mapping",
						"key": "t_string_memory_ptr",
						"label": "mapping(string => uint256)",
						"numberOfBytes": "32",
						"value": "t_uint256"
					},
					"t_string_memory_ptr": {
						"encoding": "bytes",
						"label": "string",
						"numberOfBytes": "32"
					},
					"t_string_storage": {
						"encoding": "bytes",
						"label": "string",
						"numberOfBytes": "32"
					},
					"t_struct(People)43_storage": {
						"encoding": "inplace",
						"label": "struct Storage.People",
						"members": [
							{
								"astId": 40,
								"contract": "contracts/ExtraStorage.sol:ExtraStorage",
								"label": "favoriteNumber",
								"offset": 0,
								"slot": "0",
								"type": "t_uint256"
							},
							{
								"astId": 42,
								"contract": "contracts/ExtraStorage.sol:ExtraStorage",
								"label": "name",
								"offset": 0,
								"slot": "1",
								"type": "t_string_storage"
							}
						],
						"numberOfBytes": "64"
					},
					"t_uint256": {
						"encoding": "inplace",
						"label": "uint256",
						"numberOfBytes": "32"
					}
				}
			},
			"userdoc": {
				"kind": "user",
				"methods": {},
				"version": 1
			}
		}
	}
}