{
	"contracts/FundMe.sol": {
		"FundMe": {
			"abi": [
				{
					"inputs": [],
					"name": "fund",
					"outputs": [],
					"stateMutability": "payable",
					"type": "function"
				}
			],
			"devdoc": {
				"kind": "dev",
				"methods": {},
				"version": 1
			},
			"evm": {
				"assembly": "    /* \"contracts/FundMe.sol\":56:189  contract FundMe {... */\n  mstore(0x40, 0x80)\n  callvalue\n  dup1\n  iszero\n  tag_1\n  jumpi\n  0x00\n  dup1\n  revert\ntag_1:\n  pop\n  dataSize(sub_0)\n  dup1\n  dataOffset(sub_0)\n  0x00\n  codecopy\n  0x00\n  return\nstop\n\nsub_0: assembly {\n        /* \"contracts/FundMe.sol\":56:189  contract FundMe {... */\n      mstore(0x40, 0x80)\n      jumpi(tag_1, lt(calldatasize, 0x04))\n      shr(0xe0, calldataload(0x00))\n      dup1\n      0xb60d4288\n      eq\n      tag_2\n      jumpi\n    tag_1:\n      0x00\n      dup1\n      revert\n        /* \"contracts/FundMe.sol\":78:187  function fund() public payable{... */\n    tag_2:\n      tag_3\n      tag_4\n      jump\t// in\n    tag_3:\n      stop\n    tag_4:\n        /* \"contracts/FundMe.sol\":139:143  1e16 */\n      0x2386f26fc10000\n        /* \"contracts/FundMe.sol\":127:136  msg.value */\n      callvalue\n        /* \"contracts/FundMe.sol\":127:143  msg.value > 1e16 */\n      gt\n        /* \"contracts/FundMe.sol\":118:165  require (msg.value > 1e16, \"I need more money\") */\n      tag_6\n      jumpi\n      mload(0x40)\n      0x08c379a000000000000000000000000000000000000000000000000000000000\n      dup2\n      mstore\n      0x04\n      add\n      tag_7\n      swap1\n      tag_8\n      jump\t// in\n    tag_7:\n      mload(0x40)\n      dup1\n      swap2\n      sub\n      swap1\n      revert\n    tag_6:\n        /* \"contracts/FundMe.sol\":78:187  function fund() public payable{... */\n      jump\t// out\n        /* \"#utility.yul\":7:176   */\n    tag_9:\n        /* \"#utility.yul\":91:102   */\n      0x00\n        /* \"#utility.yul\":125:131   */\n      dup3\n        /* \"#utility.yul\":120:123   */\n      dup3\n        /* \"#utility.yul\":113:132   */\n      mstore\n        /* \"#utility.yul\":165:169   */\n      0x20\n        /* \"#utility.yul\":160:163   */\n      dup3\n        /* \"#utility.yul\":156:170   */\n      add\n        /* \"#utility.yul\":141:170   */\n      swap1\n      pop\n        /* \"#utility.yul\":7:176   */\n      swap3\n      swap2\n      pop\n      pop\n      jump\t// out\n        /* \"#utility.yul\":182:349   */\n    tag_10:\n        /* \"#utility.yul\":322:341   */\n      0x49206e656564206d6f7265206d6f6e6579000000000000000000000000000000\n        /* \"#utility.yul\":318:319   */\n      0x00\n        /* \"#utility.yul\":310:316   */\n      dup3\n        /* \"#utility.yul\":306:320   */\n      add\n        /* \"#utility.yul\":299:342   */\n      mstore\n        /* \"#utility.yul\":182:349   */\n      pop\n      jump\t// out\n        /* \"#utility.yul\":355:721   */\n    tag_11:\n        /* \"#utility.yul\":497:500   */\n      0x00\n        /* \"#utility.yul\":518:585   */\n      tag_16\n        /* \"#utility.yul\":582:584   */\n      0x11\n        /* \"#utility.yul\":577:580   */\n      dup4\n        /* \"#utility.yul\":518:585   */\n      tag_9\n      jump\t// in\n    tag_16:\n        /* \"#utility.yul\":511:585   */\n      swap2\n      pop\n        /* \"#utility.yul\":594:687   */\n      tag_17\n        /* \"#utility.yul\":683:686   */\n      dup3\n        /* \"#utility.yul\":594:687   */\n      tag_10\n      jump\t// in\n    tag_17:\n        /* \"#utility.yul\":712:714   */\n      0x20\n        /* \"#utility.yul\":707:710   */\n      dup3\n        /* \"#utility.yul\":703:715   */\n      add\n        /* \"#utility.yul\":696:715   */\n      swap1\n      pop\n        /* \"#utility.yul\":355:721   */\n      swap2\n      swap1\n      pop\n      jump\t// out\n        /* \"#utility.yul\":727:1146   */\n    tag_8:\n        /* \"#utility.yul\":893:897   */\n      0x00\n        /* \"#utility.yul\":931:933   */\n      0x20\n        /* \"#utility.yul\":920:929   */\n      dup3\n        /* \"#utility.yul\":916:934   */\n      add\n        /* \"#utility.yul\":908:934   */\n      swap1\n      pop\n        /* \"#utility.yul\":980:989   */\n      dup2\n        /* \"#utility.yul\":974:978   */\n      dup2\n        /* \"#utility.yul\":970:990   */\n      sub\n        /* \"#utility.yul\":966:967   */\n      0x00\n        /* \"#utility.yul\":955:964   */\n      dup4\n        /* \"#utility.yul\":951:968   */\n      add\n        /* \"#utility.yul\":944:991   */\n      mstore\n        /* \"#utility.yul\":1008:1139   */\n      tag_19\n        /* \"#utility.yul\":1134:1138   */\n      dup2\n        /* \"#utility.yul\":1008:1139   */\n      tag_11\n      jump\t// in\n    tag_19:\n        /* \"#utility.yul\":1000:1139   */\n      swap1\n      pop\n        /* \"#utility.yul\":727:1146   */\n      swap2\n      swap1\n      pop\n      jump\t// out\n\n    auxdata: 0xa26469706673582212205d6540503ad0f3bc7c84669edb995ac084f444c2bc7a7309c69593b6901707b064736f6c63430008080033\n}\n",
				"bytecode": {
					"linkReferences": {},
					"object": "608060405234801561001057600080fd5b5061011e806100206000396000f3fe608060405260043610601c5760003560e01c8063b60d4288146021575b600080fd5b60276029565b005b662386f26fc100003411606f576040517f08c379a000000000000000000000000000000000000000000000000000000000815260040160669060ca565b60405180910390fd5b565b600082825260208201905092915050565b7f49206e656564206d6f7265206d6f6e6579000000000000000000000000000000600082015250565b600060b66011836071565b915060bf826082565b602082019050919050565b6000602082019050818103600083015260e18160ab565b905091905056fea26469706673582212205d6540503ad0f3bc7c84669edb995ac084f444c2bc7a7309c69593b6901707b064736f6c63430008080033",
					"opcodes": "PUSH1 0x80 PUSH1 0x40 MSTORE CALLVALUE DUP1 ISZERO PUSH2 0x10 JUMPI PUSH1 0x0 DUP1 REVERT JUMPDEST POP PUSH2 0x11E DUP1 PUSH2 0x20 PUSH1 0x0 CODECOPY PUSH1 0x0 RETURN INVALID PUSH1 0x80 PUSH1 0x40 MSTORE PUSH1 0x4 CALLDATASIZE LT PUSH1 0x1C JUMPI PUSH1 0x0 CALLDATALOAD PUSH1 0xE0 SHR DUP1 PUSH4 0xB60D4288 EQ PUSH1 0x21 JUMPI JUMPDEST PUSH1 0x0 DUP1 REVERT JUMPDEST PUSH1 0x27 PUSH1 0x29 JUMP JUMPDEST STOP JUMPDEST PUSH7 0x2386F26FC10000 CALLVALUE GT PUSH1 0x6F JUMPI PUSH1 0x40 MLOAD PUSH32 0x8C379A000000000000000000000000000000000000000000000000000000000 DUP2 MSTORE PUSH1 0x4 ADD PUSH1 0x66 SWAP1 PUSH1 0xCA JUMP JUMPDEST PUSH1 0x40 MLOAD DUP1 SWAP2 SUB SWAP1 REVERT JUMPDEST JUMP JUMPDEST PUSH1 0x0 DUP3 DUP3 MSTORE PUSH1 0x20 DUP3 ADD SWAP1 POP SWAP3 SWAP2 POP POP JUMP JUMPDEST PUSH32 0x49206E656564206D6F7265206D6F6E6579000000000000000000000000000000 PUSH1 0x0 DUP3 ADD MSTORE POP JUMP JUMPDEST PUSH1 0x0 PUSH1 0xB6 PUSH1 0x11 DUP4 PUSH1 0x71 JUMP JUMPDEST SWAP2 POP PUSH1 0xBF DUP3 PUSH1 0x82 JUMP JUMPDEST PUSH1 0x20 DUP3 ADD SWAP1 POP SWAP2 SWAP1 POP JUMP JUMPDEST PUSH1 0x0 PUSH1 0x20 DUP3 ADD SWAP1 POP DUP2 DUP2 SUB PUSH1 0x0 DUP4 ADD MSTORE PUSH1 0xE1 DUP2 PUSH1 0xAB JUMP JUMPDEST SWAP1 POP SWAP2 SWAP1 POP JUMP INVALID LOG2 PUSH5 0x6970667358 0x22 SLT KECCAK256 0x5D PUSH6 0x40503AD0F3BC PUSH29 0x84669EDB995AC084F444C2BC7A7309C69593B6901707B064736F6C6343 STOP ADDMOD ADDMOD STOP CALLER "
				},
				"gasEstimates": {
					"creation": {
						"codeDepositCost": "57200",
						"executionCost": "105",
						"totalCost": "57305"
					},
					"external": {
						"fund()": "409"
					}
				},
				"methodIdentifiers": {
					"fund()": "b60d4288"
				}
			},
			"storageLayout": {
				"storage": [],
				"types": null
			},
			"userdoc": {
				"kind": "user",
				"methods": {},
				"version": 1
			}
		}
	}
}