{
	"contracts/FundMe.sol": {
		"FundMe": {
			"abi": [
				{
					"inputs": [],
					"stateMutability": "nonpayable",
					"type": "constructor"
				},
				{
					"inputs": [],
					"name": "fund",
					"outputs": [],
					"stateMutability": "payable",
					"type": "function"
				},
				{
					"inputs": [],
					"name": "getConversionRate",
					"outputs": [],
					"stateMutability": "nonpayable",
					"type": "function"
				},
				{
					"inputs": [],
					"name": "getPrice",
					"outputs": [
						{
							"internalType": "int256",
							"name": "",
							"type": "int256"
						}
					],
					"stateMutability": "view",
					"type": "function"
				},
				{
					"inputs": [],
					"name": "minUSD",
					"outputs": [
						{
							"internalType": "uint256",
							"name": "",
							"type": "uint256"
						}
					],
					"stateMutability": "view",
					"type": "function"
				}
			],
			"devdoc": {
				"kind": "dev",
				"methods": {},
				"version": 1
			},
			"evm": {
				"assembly": "    /* \"contracts/FundMe.sol\":134:941  contract FundMe {... */\n  mstore(0x40, 0x80)\n    /* \"contracts/FundMe.sol\":180:182  10 */\n  0x0a\n    /* \"contracts/FundMe.sol\":156:182  uint256 public minUSD = 10 */\n  0x00\n  sstore\n    /* \"contracts/FundMe.sol\":360:468  constructor() {... */\n  callvalue\n  dup1\n  iszero\n  tag_1\n  jumpi\n  0x00\n  dup1\n  revert\ntag_1:\n  pop\n    /* \"contracts/FundMe.sol\":418:460  0xD4a33860578De61DBAbDc8BFdb98FD742fA7028e */\n  0xd4a33860578de61dbabdc8bfdb98fd742fa7028e\n    /* \"contracts/FundMe.sol\":384:393  priceFeed */\n  0x01\n  0x00\n    /* \"contracts/FundMe.sol\":384:461  priceFeed = AggregatorV3Interface(0xD4a33860578De61DBAbDc8BFdb98FD742fA7028e) */\n  0x0100\n  exp\n  dup2\n  sload\n  dup2\n  0xffffffffffffffffffffffffffffffffffffffff\n  mul\n  not\n  and\n  swap1\n  dup4\n  0xffffffffffffffffffffffffffffffffffffffff\n  and\n  mul\n  or\n  swap1\n  sstore\n  pop\n    /* \"contracts/FundMe.sol\":134:941  contract FundMe {... */\n  dataSize(sub_0)\n  dup1\n  dataOffset(sub_0)\n  0x00\n  codecopy\n  0x00\n  return\nstop\n\nsub_0: assembly {\n        /* \"contracts/FundMe.sol\":134:941  contract FundMe {... */\n      mstore(0x40, 0x80)\n      jumpi(tag_1, lt(calldatasize, 0x04))\n      shr(0xe0, calldataload(0x00))\n      dup1\n      0x98d5fdca\n      eq\n      tag_2\n      jumpi\n      dup1\n      0xb60d4288\n      eq\n      tag_3\n      jumpi\n      dup1\n      0xdc992aa0\n      eq\n      tag_4\n      jumpi\n      dup1\n      0xf36089ec\n      eq\n      tag_5\n      jumpi\n    tag_1:\n      0x00\n      dup1\n      revert\n        /* \"contracts/FundMe.sol\":474:763  function getPrice() public view returns(int) {... */\n    tag_2:\n      callvalue\n      dup1\n      iszero\n      tag_6\n      jumpi\n      0x00\n      dup1\n      revert\n    tag_6:\n      pop\n      tag_7\n      tag_8\n      jump\t// in\n    tag_7:\n      mload(0x40)\n      tag_9\n      swap2\n      swap1\n      tag_10\n      jump\t// in\n    tag_9:\n      mload(0x40)\n      dup1\n      swap2\n      sub\n      swap1\n      return\n        /* \"contracts/FundMe.sol\":819:939  function fund() public payable{... */\n    tag_3:\n      tag_11\n      tag_12\n      jump\t// in\n    tag_11:\n      stop\n        /* \"contracts/FundMe.sol\":156:182  uint256 public minUSD = 10 */\n    tag_4:\n      callvalue\n      dup1\n      iszero\n      tag_13\n      jumpi\n      0x00\n      dup1\n      revert\n    tag_13:\n      pop\n      tag_14\n      tag_15\n      jump\t// in\n    tag_14:\n      mload(0x40)\n      tag_16\n      swap2\n      swap1\n      tag_17\n      jump\t// in\n    tag_16:\n      mload(0x40)\n      dup1\n      swap2\n      sub\n      swap1\n      return\n        /* \"contracts/FundMe.sol\":769:813  function getConversionRate() public {... */\n    tag_5:\n      callvalue\n      dup1\n      iszero\n      tag_18\n      jumpi\n      0x00\n      dup1\n      revert\n    tag_18:\n      pop\n      tag_19\n      tag_20\n      jump\t// in\n    tag_19:\n      stop\n        /* \"contracts/FundMe.sol\":474:763  function getPrice() public view returns(int) {... */\n    tag_8:\n        /* \"contracts/FundMe.sol\":514:517  int */\n      0x00\n        /* \"contracts/FundMe.sol\":560:574  uint80 roundID */\n      dup1\n        /* \"contracts/FundMe.sol\":588:597  int price */\n      0x00\n        /* \"contracts/FundMe.sol\":611:625  uint startedAt */\n      dup1\n        /* \"contracts/FundMe.sol\":639:653  uint timeStamp */\n      0x00\n        /* \"contracts/FundMe.sol\":667:689  uint80 answeredInRound */\n      dup1\n        /* \"contracts/FundMe.sol\":702:711  priceFeed */\n      0x01\n      0x00\n      swap1\n      sload\n      swap1\n      0x0100\n      exp\n      swap1\n      div\n      0xffffffffffffffffffffffffffffffffffffffff\n      and\n        /* \"contracts/FundMe.sol\":702:727  priceFeed.latestRoundData */\n      0xffffffffffffffffffffffffffffffffffffffff\n      and\n      0xfeaf968c\n        /* \"contracts/FundMe.sol\":702:729  priceFeed.latestRoundData() */\n      mload(0x40)\n      dup2\n      0xffffffff\n      and\n      0xe0\n      shl\n      dup2\n      mstore\n      0x04\n      add\n      0xa0\n      mload(0x40)\n      dup1\n      dup4\n      sub\n      dup2\n      dup7\n      dup1\n      extcodesize\n      iszero\n      dup1\n      iszero\n      tag_22\n      jumpi\n      0x00\n      dup1\n      revert\n    tag_22:\n      pop\n      gas\n      staticcall\n      iszero\n      dup1\n      iszero\n      tag_24\n      jumpi\n      returndatasize\n      0x00\n      dup1\n      returndatacopy\n      revert(0x00, returndatasize)\n    tag_24:\n      pop\n      pop\n      pop\n      pop\n      mload(0x40)\n      returndatasize\n      not(0x1f)\n      0x1f\n      dup3\n      add\n      and\n      dup3\n      add\n      dup1\n      0x40\n      mstore\n      pop\n      dup2\n      add\n      swap1\n      tag_25\n      swap2\n      swap1\n      tag_26\n      jump\t// in\n    tag_25:\n        /* \"contracts/FundMe.sol\":543:729  (   ... */\n      swap5\n      pop\n      swap5\n      pop\n      swap5\n      pop\n      swap5\n      pop\n      swap5\n      pop\n        /* \"contracts/FundMe.sol\":747:752  price */\n      dup4\n        /* \"contracts/FundMe.sol\":740:752  return price */\n      swap6\n      pop\n      pop\n      pop\n      pop\n      pop\n      pop\n        /* \"contracts/FundMe.sol\":474:763  function getPrice() public view returns(int) {... */\n      swap1\n      jump\t// out\n        /* \"contracts/FundMe.sol\":819:939  function fund() public payable{... */\n    tag_12:\n        /* \"contracts/FundMe.sol\":903:909  minUSD */\n      sload(0x00)\n        /* \"contracts/FundMe.sol\":891:900  msg.value */\n      callvalue\n        /* \"contracts/FundMe.sol\":891:909  msg.value > minUSD */\n      gt\n        /* \"contracts/FundMe.sol\":882:931  require (msg.value > minUSD, \"I need more money\") */\n      tag_28\n      jumpi\n      mload(0x40)\n      0x08c379a000000000000000000000000000000000000000000000000000000000\n      dup2\n      mstore\n      0x04\n      add\n      tag_29\n      swap1\n      tag_30\n      jump\t// in\n    tag_29:\n      mload(0x40)\n      dup1\n      swap2\n      sub\n      swap1\n      revert\n    tag_28:\n        /* \"contracts/FundMe.sol\":819:939  function fund() public payable{... */\n      jump\t// out\n        /* \"contracts/FundMe.sol\":156:182  uint256 public minUSD = 10 */\n    tag_15:\n      sload(0x00)\n      dup2\n      jump\t// out\n        /* \"contracts/FundMe.sol\":769:813  function getConversionRate() public {... */\n    tag_20:\n      jump\t// out\n        /* \"#utility.yul\":7:83   */\n    tag_32:\n        /* \"#utility.yul\":43:50   */\n      0x00\n        /* \"#utility.yul\":72:77   */\n      dup2\n        /* \"#utility.yul\":61:77   */\n      swap1\n      pop\n        /* \"#utility.yul\":7:83   */\n      swap2\n      swap1\n      pop\n      jump\t// out\n        /* \"#utility.yul\":89:204   */\n    tag_33:\n        /* \"#utility.yul\":174:197   */\n      tag_52\n        /* \"#utility.yul\":191:196   */\n      dup2\n        /* \"#utility.yul\":174:197   */\n      tag_32\n      jump\t// in\n    tag_52:\n        /* \"#utility.yul\":169:172   */\n      dup3\n        /* \"#utility.yul\":162:198   */\n      mstore\n        /* \"#utility.yul\":89:204   */\n      pop\n      pop\n      jump\t// out\n        /* \"#utility.yul\":210:428   */\n    tag_10:\n        /* \"#utility.yul\":301:305   */\n      0x00\n        /* \"#utility.yul\":339:341   */\n      0x20\n        /* \"#utility.yul\":328:337   */\n      dup3\n        /* \"#utility.yul\":324:342   */\n      add\n        /* \"#utility.yul\":316:342   */\n      swap1\n      pop\n        /* \"#utility.yul\":352:421   */\n      tag_54\n        /* \"#utility.yul\":418:419   */\n      0x00\n        /* \"#utility.yul\":407:416   */\n      dup4\n        /* \"#utility.yul\":403:420   */\n      add\n        /* \"#utility.yul\":394:400   */\n      dup5\n        /* \"#utility.yul\":352:421   */\n      tag_33\n      jump\t// in\n    tag_54:\n        /* \"#utility.yul\":210:428   */\n      swap3\n      swap2\n      pop\n      pop\n      jump\t// out\n        /* \"#utility.yul\":434:511   */\n    tag_34:\n        /* \"#utility.yul\":471:478   */\n      0x00\n        /* \"#utility.yul\":500:505   */\n      dup2\n        /* \"#utility.yul\":489:505   */\n      swap1\n      pop\n        /* \"#utility.yul\":434:511   */\n      swap2\n      swap1\n      pop\n      jump\t// out\n        /* \"#utility.yul\":517:635   */\n    tag_35:\n        /* \"#utility.yul\":604:628   */\n      tag_57\n        /* \"#utility.yul\":622:627   */\n      dup2\n        /* \"#utility.yul\":604:628   */\n      tag_34\n      jump\t// in\n    tag_57:\n        /* \"#utility.yul\":599:602   */\n      dup3\n        /* \"#utility.yul\":592:629   */\n      mstore\n        /* \"#utility.yul\":517:635   */\n      pop\n      pop\n      jump\t// out\n        /* \"#utility.yul\":641:863   */\n    tag_17:\n        /* \"#utility.yul\":734:738   */\n      0x00\n        /* \"#utility.yul\":772:774   */\n      0x20\n        /* \"#utility.yul\":761:770   */\n      dup3\n        /* \"#utility.yul\":757:775   */\n      add\n        /* \"#utility.yul\":749:775   */\n      swap1\n      pop\n        /* \"#utility.yul\":785:856   */\n      tag_59\n        /* \"#utility.yul\":853:854   */\n      0x00\n        /* \"#utility.yul\":842:851   */\n      dup4\n        /* \"#utility.yul\":838:855   */\n      add\n        /* \"#utility.yul\":829:835   */\n      dup5\n        /* \"#utility.yul\":785:856   */\n      tag_35\n      jump\t// in\n    tag_59:\n        /* \"#utility.yul\":641:863   */\n      swap3\n      swap2\n      pop\n      pop\n      jump\t// out\n        /* \"#utility.yul\":950:1067   */\n    tag_37:\n        /* \"#utility.yul\":1059:1060   */\n      0x00\n        /* \"#utility.yul\":1056:1057   */\n      dup1\n        /* \"#utility.yul\":1049:1061   */\n      revert\n        /* \"#utility.yul\":1196:1301   */\n    tag_39:\n        /* \"#utility.yul\":1232:1239   */\n      0x00\n        /* \"#utility.yul\":1272:1294   */\n      0xffffffffffffffffffff\n        /* \"#utility.yul\":1265:1270   */\n      dup3\n        /* \"#utility.yul\":1261:1295   */\n      and\n        /* \"#utility.yul\":1250:1295   */\n      swap1\n      pop\n        /* \"#utility.yul\":1196:1301   */\n      swap2\n      swap1\n      pop\n      jump\t// out\n        /* \"#utility.yul\":1307:1427   */\n    tag_40:\n        /* \"#utility.yul\":1379:1402   */\n      tag_65\n        /* \"#utility.yul\":1396:1401   */\n      dup2\n        /* \"#utility.yul\":1379:1402   */\n      tag_39\n      jump\t// in\n    tag_65:\n        /* \"#utility.yul\":1372:1377   */\n      dup2\n        /* \"#utility.yul\":1369:1403   */\n      eq\n        /* \"#utility.yul\":1359:1421   */\n      tag_66\n      jumpi\n        /* \"#utility.yul\":1417:1418   */\n      0x00\n        /* \"#utility.yul\":1414:1415   */\n      dup1\n        /* \"#utility.yul\":1407:1419   */\n      revert\n        /* \"#utility.yul\":1359:1421   */\n    tag_66:\n        /* \"#utility.yul\":1307:1427   */\n      pop\n      jump\t// out\n        /* \"#utility.yul\":1433:1574   */\n    tag_41:\n        /* \"#utility.yul\":1489:1494   */\n      0x00\n        /* \"#utility.yul\":1520:1526   */\n      dup2\n        /* \"#utility.yul\":1514:1527   */\n      mload\n        /* \"#utility.yul\":1505:1527   */\n      swap1\n      pop\n        /* \"#utility.yul\":1536:1568   */\n      tag_68\n        /* \"#utility.yul\":1562:1567   */\n      dup2\n        /* \"#utility.yul\":1536:1568   */\n      tag_40\n      jump\t// in\n    tag_68:\n        /* \"#utility.yul\":1433:1574   */\n      swap3\n      swap2\n      pop\n      pop\n      jump\t// out\n        /* \"#utility.yul\":1580:1700   */\n    tag_42:\n        /* \"#utility.yul\":1652:1675   */\n      tag_70\n        /* \"#utility.yul\":1669:1674   */\n      dup2\n        /* \"#utility.yul\":1652:1675   */\n      tag_32\n      jump\t// in\n    tag_70:\n        /* \"#utility.yul\":1645:1650   */\n      dup2\n        /* \"#utility.yul\":1642:1676   */\n      eq\n        /* \"#utility.yul\":1632:1694   */\n      tag_71\n      jumpi\n        /* \"#utility.yul\":1690:1691   */\n      0x00\n        /* \"#utility.yul\":1687:1688   */\n      dup1\n        /* \"#utility.yul\":1680:1692   */\n      revert\n        /* \"#utility.yul\":1632:1694   */\n    tag_71:\n        /* \"#utility.yul\":1580:1700   */\n      pop\n      jump\t// out\n        /* \"#utility.yul\":1706:1847   */\n    tag_43:\n        /* \"#utility.yul\":1762:1767   */\n      0x00\n        /* \"#utility.yul\":1793:1799   */\n      dup2\n        /* \"#utility.yul\":1787:1800   */\n      mload\n        /* \"#utility.yul\":1778:1800   */\n      swap1\n      pop\n        /* \"#utility.yul\":1809:1841   */\n      tag_73\n        /* \"#utility.yul\":1835:1840   */\n      dup2\n        /* \"#utility.yul\":1809:1841   */\n      tag_42\n      jump\t// in\n    tag_73:\n        /* \"#utility.yul\":1706:1847   */\n      swap3\n      swap2\n      pop\n      pop\n      jump\t// out\n        /* \"#utility.yul\":1853:1975   */\n    tag_44:\n        /* \"#utility.yul\":1926:1950   */\n      tag_75\n        /* \"#utility.yul\":1944:1949   */\n      dup2\n        /* \"#utility.yul\":1926:1950   */\n      tag_34\n      jump\t// in\n    tag_75:\n        /* \"#utility.yul\":1919:1924   */\n      dup2\n        /* \"#utility.yul\":1916:1951   */\n      eq\n        /* \"#utility.yul\":1906:1969   */\n      tag_76\n      jumpi\n        /* \"#utility.yul\":1965:1966   */\n      0x00\n        /* \"#utility.yul\":1962:1963   */\n      dup1\n        /* \"#utility.yul\":1955:1967   */\n      revert\n        /* \"#utility.yul\":1906:1969   */\n    tag_76:\n        /* \"#utility.yul\":1853:1975   */\n      pop\n      jump\t// out\n        /* \"#utility.yul\":1981:2124   */\n    tag_45:\n        /* \"#utility.yul\":2038:2043   */\n      0x00\n        /* \"#utility.yul\":2069:2075   */\n      dup2\n        /* \"#utility.yul\":2063:2076   */\n      mload\n        /* \"#utility.yul\":2054:2076   */\n      swap1\n      pop\n        /* \"#utility.yul\":2085:2118   */\n      tag_78\n        /* \"#utility.yul\":2112:2117   */\n      dup2\n        /* \"#utility.yul\":2085:2118   */\n      tag_44\n      jump\t// in\n    tag_78:\n        /* \"#utility.yul\":1981:2124   */\n      swap3\n      swap2\n      pop\n      pop\n      jump\t// out\n        /* \"#utility.yul\":2130:3101   */\n    tag_26:\n        /* \"#utility.yul\":2233:2239   */\n      0x00\n        /* \"#utility.yul\":2241:2247   */\n      dup1\n        /* \"#utility.yul\":2249:2255   */\n      0x00\n        /* \"#utility.yul\":2257:2263   */\n      dup1\n        /* \"#utility.yul\":2265:2271   */\n      0x00\n        /* \"#utility.yul\":2314:2317   */\n      0xa0\n        /* \"#utility.yul\":2302:2311   */\n      dup7\n        /* \"#utility.yul\":2293:2300   */\n      dup9\n        /* \"#utility.yul\":2289:2312   */\n      sub\n        /* \"#utility.yul\":2285:2318   */\n      slt\n        /* \"#utility.yul\":2282:2402   */\n      iszero\n      tag_80\n      jumpi\n        /* \"#utility.yul\":2321:2400   */\n      tag_81\n      tag_37\n      jump\t// in\n    tag_81:\n        /* \"#utility.yul\":2282:2402   */\n    tag_80:\n        /* \"#utility.yul\":2441:2442   */\n      0x00\n        /* \"#utility.yul\":2466:2529   */\n      tag_82\n        /* \"#utility.yul\":2521:2528   */\n      dup9\n        /* \"#utility.yul\":2512:2518   */\n      dup3\n        /* \"#utility.yul\":2501:2510   */\n      dup10\n        /* \"#utility.yul\":2497:2519   */\n      add\n        /* \"#utility.yul\":2466:2529   */\n      tag_41\n      jump\t// in\n    tag_82:\n        /* \"#utility.yul\":2456:2529   */\n      swap6\n      pop\n        /* \"#utility.yul\":2412:2539   */\n      pop\n        /* \"#utility.yul\":2578:2580   */\n      0x20\n        /* \"#utility.yul\":2604:2667   */\n      tag_83\n        /* \"#utility.yul\":2659:2666   */\n      dup9\n        /* \"#utility.yul\":2650:2656   */\n      dup3\n        /* \"#utility.yul\":2639:2648   */\n      dup10\n        /* \"#utility.yul\":2635:2657   */\n      add\n        /* \"#utility.yul\":2604:2667   */\n      tag_43\n      jump\t// in\n    tag_83:\n        /* \"#utility.yul\":2594:2667   */\n      swap5\n      pop\n        /* \"#utility.yul\":2549:2677   */\n      pop\n        /* \"#utility.yul\":2716:2718   */\n      0x40\n        /* \"#utility.yul\":2742:2806   */\n      tag_84\n        /* \"#utility.yul\":2798:2805   */\n      dup9\n        /* \"#utility.yul\":2789:2795   */\n      dup3\n        /* \"#utility.yul\":2778:2787   */\n      dup10\n        /* \"#utility.yul\":2774:2796   */\n      add\n        /* \"#utility.yul\":2742:2806   */\n      tag_45\n      jump\t// in\n    tag_84:\n        /* \"#utility.yul\":2732:2806   */\n      swap4\n      pop\n        /* \"#utility.yul\":2687:2816   */\n      pop\n        /* \"#utility.yul\":2855:2857   */\n      0x60\n        /* \"#utility.yul\":2881:2945   */\n      tag_85\n        /* \"#utility.yul\":2937:2944   */\n      dup9\n        /* \"#utility.yul\":2928:2934   */\n      dup3\n        /* \"#utility.yul\":2917:2926   */\n      dup10\n        /* \"#utility.yul\":2913:2935   */\n      add\n        /* \"#utility.yul\":2881:2945   */\n      tag_45\n      jump\t// in\n    tag_85:\n        /* \"#utility.yul\":2871:2945   */\n      swap3\n      pop\n        /* \"#utility.yul\":2826:2955   */\n      pop\n        /* \"#utility.yul\":2994:2997   */\n      0x80\n        /* \"#utility.yul\":3021:3084   */\n      tag_86\n        /* \"#utility.yul\":3076:3083   */\n      dup9\n        /* \"#utility.yul\":3067:3073   */\n      dup3\n        /* \"#utility.yul\":3056:3065   */\n      dup10\n        /* \"#utility.yul\":3052:3074   */\n      add\n        /* \"#utility.yul\":3021:3084   */\n      tag_41\n      jump\t// in\n    tag_86:\n        /* \"#utility.yul\":3011:3084   */\n      swap2\n      pop\n        /* \"#utility.yul\":2965:3094   */\n      pop\n        /* \"#utility.yul\":2130:3101   */\n      swap3\n      swap6\n      pop\n      swap3\n      swap6\n      swap1\n      swap4\n      pop\n      jump\t// out\n        /* \"#utility.yul\":3107:3276   */\n    tag_46:\n        /* \"#utility.yul\":3191:3202   */\n      0x00\n        /* \"#utility.yul\":3225:3231   */\n      dup3\n        /* \"#utility.yul\":3220:3223   */\n      dup3\n        /* \"#utility.yul\":3213:3232   */\n      mstore\n        /* \"#utility.yul\":3265:3269   */\n      0x20\n        /* \"#utility.yul\":3260:3263   */\n      dup3\n        /* \"#utility.yul\":3256:3270   */\n      add\n        /* \"#utility.yul\":3241:3270   */\n      swap1\n      pop\n        /* \"#utility.yul\":3107:3276   */\n      swap3\n      swap2\n      pop\n      pop\n      jump\t// out\n        /* \"#utility.yul\":3282:3449   */\n    tag_47:\n        /* \"#utility.yul\":3422:3441   */\n      0x49206e656564206d6f7265206d6f6e6579000000000000000000000000000000\n        /* \"#utility.yul\":3418:3419   */\n      0x00\n        /* \"#utility.yul\":3410:3416   */\n      dup3\n        /* \"#utility.yul\":3406:3420   */\n      add\n        /* \"#utility.yul\":3399:3442   */\n      mstore\n        /* \"#utility.yul\":3282:3449   */\n      pop\n      jump\t// out\n        /* \"#utility.yul\":3455:3821   */\n    tag_48:\n        /* \"#utility.yul\":3597:3600   */\n      0x00\n        /* \"#utility.yul\":3618:3685   */\n      tag_90\n        /* \"#utility.yul\":3682:3684   */\n      0x11\n        /* \"#utility.yul\":3677:3680   */\n      dup4\n        /* \"#utility.yul\":3618:3685   */\n      tag_46\n      jump\t// in\n    tag_90:\n        /* \"#utility.yul\":3611:3685   */\n      swap2\n      pop\n        /* \"#utility.yul\":3694:3787   */\n      tag_91\n        /* \"#utility.yul\":3783:3786   */\n      dup3\n        /* \"#utility.yul\":3694:3787   */\n      tag_47\n      jump\t// in\n    tag_91:\n        /* \"#utility.yul\":3812:3814   */\n      0x20\n        /* \"#utility.yul\":3807:3810   */\n      dup3\n        /* \"#utility.yul\":3803:3815   */\n      add\n        /* \"#utility.yul\":3796:3815   */\n      swap1\n      pop\n        /* \"#utility.yul\":3455:3821   */\n      swap2\n      swap1\n      pop\n      jump\t// out\n        /* \"#utility.yul\":3827:4246   */\n    tag_30:\n        /* \"#utility.yul\":3993:3997   */\n      0x00\n        /* \"#utility.yul\":4031:4033   */\n      0x20\n        /* \"#utility.yul\":4020:4029   */\n      dup3\n        /* \"#utility.yul\":4016:4034   */\n      add\n        /* \"#utility.yul\":4008:4034   */\n      swap1\n      pop\n        /* \"#utility.yul\":4080:4089   */\n      dup2\n        /* \"#utility.yul\":4074:4078   */\n      dup2\n        /* \"#utility.yul\":4070:4090   */\n      sub\n        /* \"#utility.yul\":4066:4067   */\n      0x00\n        /* \"#utility.yul\":4055:4064   */\n      dup4\n        /* \"#utility.yul\":4051:4068   */\n      add\n        /* \"#utility.yul\":4044:4091   */\n      mstore\n        /* \"#utility.yul\":4108:4239   */\n      tag_93\n        /* \"#utility.yul\":4234:4238   */\n      dup2\n        /* \"#utility.yul\":4108:4239   */\n      tag_48\n      jump\t// in\n    tag_93:\n        /* \"#utility.yul\":4100:4239   */\n      swap1\n      pop\n        /* \"#utility.yul\":3827:4246   */\n      swap2\n      swap1\n      pop\n      jump\t// out\n\n    auxdata: 0xa2646970667358221220e4b842822269b5739d75776981821ce9a86e3ad550e5c08ae893100e8507505064736f6c63430008080033\n}\n",
				"bytecode": {
					"linkReferences": {},
					"object": "6080604052600a60005534801561001557600080fd5b5073d4a33860578de61dbabdc8bfdb98fd742fa7028e600160006101000a81548173ffffffffffffffffffffffffffffffffffffffff021916908373ffffffffffffffffffffffffffffffffffffffff1602179055506103fc8061007a6000396000f3fe60806040526004361061003f5760003560e01c806398d5fdca14610044578063b60d42881461006f578063dc992aa014610079578063f36089ec146100a4575b600080fd5b34801561005057600080fd5b506100596100bb565b60405161006691906101e0565b60405180910390f35b610077610179565b005b34801561008557600080fd5b5061008e6101bf565b60405161009b9190610214565b60405180910390f35b3480156100b057600080fd5b506100b96101c5565b005b600080600080600080600160009054906101000a900473ffffffffffffffffffffffffffffffffffffffff1673ffffffffffffffffffffffffffffffffffffffff1663feaf968c6040518163ffffffff1660e01b815260040160a06040518083038186803b15801561012c57600080fd5b505afa158015610140573d6000803e3d6000fd5b505050506040513d601f19601f8201168201806040525081019061016491906102ce565b94509450945094509450839550505050505090565b60005434116101bd576040517f08c379a00000000000000000000000000000000000000000000000000000000081526004016101b4906103a6565b60405180910390fd5b565b60005481565b565b6000819050919050565b6101da816101c7565b82525050565b60006020820190506101f560008301846101d1565b92915050565b6000819050919050565b61020e816101fb565b82525050565b60006020820190506102296000830184610205565b92915050565b600080fd5b600069ffffffffffffffffffff82169050919050565b61025381610234565b811461025e57600080fd5b50565b6000815190506102708161024a565b92915050565b61027f816101c7565b811461028a57600080fd5b50565b60008151905061029c81610276565b92915050565b6102ab816101fb565b81146102b657600080fd5b50565b6000815190506102c8816102a2565b92915050565b600080600080600060a086880312156102ea576102e961022f565b5b60006102f888828901610261565b95505060206103098882890161028d565b945050604061031a888289016102b9565b935050606061032b888289016102b9565b925050608061033c88828901610261565b9150509295509295909350565b600082825260208201905092915050565b7f49206e656564206d6f7265206d6f6e6579000000000000000000000000000000600082015250565b6000610390601183610349565b915061039b8261035a565b602082019050919050565b600060208201905081810360008301526103bf81610383565b905091905056fea2646970667358221220e4b842822269b5739d75776981821ce9a86e3ad550e5c08ae893100e8507505064736f6c63430008080033",
					"opcodes": "PUSH1 0x80 PUSH1 0x40 MSTORE PUSH1 0xA PUSH1 0x0 SSTORE CALLVALUE DUP1 ISZERO PUSH2 0x15 JUMPI PUSH1 0x0 DUP1 REVERT JUMPDEST POP PUSH20 0xD4A33860578DE61DBABDC8BFDB98FD742FA7028E PUSH1 0x1 PUSH1 0x0 PUSH2 0x100 EXP DUP2 SLOAD DUP2 PUSH20 0xFFFFFFFFFFFFFFFFFFFFFFFFFFFFFFFFFFFFFFFF MUL NOT AND SWAP1 DUP4 PUSH20 0xFFFFFFFFFFFFFFFFFFFFFFFFFFFFFFFFFFFFFFFF AND MUL OR SWAP1 SSTORE POP PUSH2 0x3FC DUP1 PUSH2 0x7A PUSH1 0x0 CODECOPY PUSH1 0x0 RETURN INVALID PUSH1 0x80 PUSH1 0x40 MSTORE PUSH1 0x4 CALLDATASIZE LT PUSH2 0x3F JUMPI PUSH1 0x0 CALLDATALOAD PUSH1 0xE0 SHR DUP1 PUSH4 0x98D5FDCA EQ PUSH2 0x44 JUMPI DUP1 PUSH4 0xB60D4288 EQ PUSH2 0x6F JUMPI DUP1 PUSH4 0xDC992AA0 EQ PUSH2 0x79 JUMPI DUP1 PUSH4 0xF36089EC EQ PUSH2 0xA4 JUMPI JUMPDEST PUSH1 0x0 DUP1 REVERT JUMPDEST CALLVALUE DUP1 ISZERO PUSH2 0x50 JUMPI PUSH1 0x0 DUP1 REVERT JUMPDEST POP PUSH2 0x59 PUSH2 0xBB JUMP JUMPDEST PUSH1 0x40 MLOAD PUSH2 0x66 SWAP2 SWAP1 PUSH2 0x1E0 JUMP JUMPDEST PUSH1 0x40 MLOAD DUP1 SWAP2 SUB SWAP1 RETURN JUMPDEST PUSH2 0x77 PUSH2 0x179 JUMP JUMPDEST STOP JUMPDEST CALLVALUE DUP1 ISZERO PUSH2 0x85 JUMPI PUSH1 0x0 DUP1 REVERT JUMPDEST POP PUSH2 0x8E PUSH2 0x1BF JUMP JUMPDEST PUSH1 0x40 MLOAD PUSH2 0x9B SWAP2 SWAP1 PUSH2 0x214 JUMP JUMPDEST PUSH1 0x40 MLOAD DUP1 SWAP2 SUB SWAP1 RETURN JUMPDEST CALLVALUE DUP1 ISZERO PUSH2 0xB0 JUMPI PUSH1 0x0 DUP1 REVERT JUMPDEST POP PUSH2 0xB9 PUSH2 0x1C5 JUMP JUMPDEST STOP JUMPDEST PUSH1 0x0 DUP1 PUSH1 0x0 DUP1 PUSH1 0x0 DUP1 PUSH1 0x1 PUSH1 0x0 SWAP1 SLOAD SWAP1 PUSH2 0x100 EXP SWAP1 DIV PUSH20 0xFFFFFFFFFFFFFFFFFFFFFFFFFFFFFFFFFFFFFFFF AND PUSH20 0xFFFFFFFFFFFFFFFFFFFFFFFFFFFFFFFFFFFFFFFF AND PUSH4 0xFEAF968C PUSH1 0x40 MLOAD DUP2 PUSH4 0xFFFFFFFF AND PUSH1 0xE0 SHL DUP2 MSTORE PUSH1 0x4 ADD PUSH1 0xA0 PUSH1 0x40 MLOAD DUP1 DUP4 SUB DUP2 DUP7 DUP1 EXTCODESIZE ISZERO DUP1 ISZERO PUSH2 0x12C JUMPI PUSH1 0x0 DUP1 REVERT JUMPDEST POP GAS STATICCALL ISZERO DUP1 ISZERO PUSH2 0x140 JUMPI RETURNDATASIZE PUSH1 0x0 DUP1 RETURNDATACOPY RETURNDATASIZE PUSH1 0x0 REVERT JUMPDEST POP POP POP POP PUSH1 0x40 MLOAD RETURNDATASIZE PUSH1 0x1F NOT PUSH1 0x1F DUP3 ADD AND DUP3 ADD DUP1 PUSH1 0x40 MSTORE POP DUP2 ADD SWAP1 PUSH2 0x164 SWAP2 SWAP1 PUSH2 0x2CE JUMP JUMPDEST SWAP5 POP SWAP5 POP SWAP5 POP SWAP5 POP SWAP5 POP DUP4 SWAP6 POP POP POP POP POP POP SWAP1 JUMP JUMPDEST PUSH1 0x0 SLOAD CALLVALUE GT PUSH2 0x1BD JUMPI PUSH1 0x40 MLOAD PUSH32 0x8C379A000000000000000000000000000000000000000000000000000000000 DUP2 MSTORE PUSH1 0x4 ADD PUSH2 0x1B4 SWAP1 PUSH2 0x3A6 JUMP JUMPDEST PUSH1 0x40 MLOAD DUP1 SWAP2 SUB SWAP1 REVERT JUMPDEST JUMP JUMPDEST PUSH1 0x0 SLOAD DUP2 JUMP JUMPDEST JUMP JUMPDEST PUSH1 0x0 DUP2 SWAP1 POP SWAP2 SWAP1 POP JUMP JUMPDEST PUSH2 0x1DA DUP2 PUSH2 0x1C7 JUMP JUMPDEST DUP3 MSTORE POP POP JUMP JUMPDEST PUSH1 0x0 PUSH1 0x20 DUP3 ADD SWAP1 POP PUSH2 0x1F5 PUSH1 0x0 DUP4 ADD DUP5 PUSH2 0x1D1 JUMP JUMPDEST SWAP3 SWAP2 POP POP JUMP JUMPDEST PUSH1 0x0 DUP2 SWAP1 POP SWAP2 SWAP1 POP JUMP JUMPDEST PUSH2 0x20E DUP2 PUSH2 0x1FB JUMP JUMPDEST DUP3 MSTORE POP POP JUMP JUMPDEST PUSH1 0x0 PUSH1 0x20 DUP3 ADD SWAP1 POP PUSH2 0x229 PUSH1 0x0 DUP4 ADD DUP5 PUSH2 0x205 JUMP JUMPDEST SWAP3 SWAP2 POP POP JUMP JUMPDEST PUSH1 0x0 DUP1 REVERT JUMPDEST PUSH1 0x0 PUSH10 0xFFFFFFFFFFFFFFFFFFFF DUP3 AND SWAP1 POP SWAP2 SWAP1 POP JUMP JUMPDEST PUSH2 0x253 DUP2 PUSH2 0x234 JUMP JUMPDEST DUP2 EQ PUSH2 0x25E JUMPI PUSH1 0x0 DUP1 REVERT JUMPDEST POP JUMP JUMPDEST PUSH1 0x0 DUP2 MLOAD SWAP1 POP PUSH2 0x270 DUP2 PUSH2 0x24A JUMP JUMPDEST SWAP3 SWAP2 POP POP JUMP JUMPDEST PUSH2 0x27F DUP2 PUSH2 0x1C7 JUMP JUMPDEST DUP2 EQ PUSH2 0x28A JUMPI PUSH1 0x0 DUP1 REVERT JUMPDEST POP JUMP JUMPDEST PUSH1 0x0 DUP2 MLOAD SWAP1 POP PUSH2 0x29C DUP2 PUSH2 0x276 JUMP JUMPDEST SWAP3 SWAP2 POP POP JUMP JUMPDEST PUSH2 0x2AB DUP2 PUSH2 0x1FB JUMP JUMPDEST DUP2 EQ PUSH2 0x2B6 JUMPI PUSH1 0x0 DUP1 REVERT JUMPDEST POP JUMP JUMPDEST PUSH1 0x0 DUP2 MLOAD SWAP1 POP PUSH2 0x2C8 DUP2 PUSH2 0x2A2 JUMP JUMPDEST SWAP3 SWAP2 POP POP JUMP JUMPDEST PUSH1 0x0 DUP1 PUSH1 0x0 DUP1 PUSH1 0x0 PUSH1 0xA0 DUP7 DUP9 SUB SLT ISZERO PUSH2 0x2EA JUMPI PUSH2 0x2E9 PUSH2 0x22F JUMP JUMPDEST JUMPDEST PUSH1 0x0 PUSH2 0x2F8 DUP9 DUP3 DUP10 ADD PUSH2 0x261 JUMP JUMPDEST SWAP6 POP POP PUSH1 0x20 PUSH2 0x309 DUP9 DUP3 DUP10 ADD PUSH2 0x28D JUMP JUMPDEST SWAP5 POP POP PUSH1 0x40 PUSH2 0x31A DUP9 DUP3 DUP10 ADD PUSH2 0x2B9 JUMP JUMPDEST SWAP4 POP POP PUSH1 0x60 PUSH2 0x32B DUP9 DUP3 DUP10 ADD PUSH2 0x2B9 JUMP JUMPDEST SWAP3 POP POP PUSH1 0x80 PUSH2 0x33C DUP9 DUP3 DUP10 ADD PUSH2 0x261 JUMP JUMPDEST SWAP2 POP POP SWAP3 SWAP6 POP SWAP3 SWAP6 SWAP1 SWAP4 POP JUMP JUMPDEST PUSH1 0x0 DUP3 DUP3 MSTORE PUSH1 0x20 DUP3 ADD SWAP1 POP SWAP3 SWAP2 POP POP JUMP JUMPDEST PUSH32 0x49206E656564206D6F7265206D6F6E6579000000000000000000000000000000 PUSH1 0x0 DUP3 ADD MSTORE POP JUMP JUMPDEST PUSH1 0x0 PUSH2 0x390 PUSH1 0x11 DUP4 PUSH2 0x349 JUMP JUMPDEST SWAP2 POP PUSH2 0x39B DUP3 PUSH2 0x35A JUMP JUMPDEST PUSH1 0x20 DUP3 ADD SWAP1 POP SWAP2 SWAP1 POP JUMP JUMPDEST PUSH1 0x0 PUSH1 0x20 DUP3 ADD SWAP1 POP DUP2 DUP2 SUB PUSH1 0x0 DUP4 ADD MSTORE PUSH2 0x3BF DUP2 PUSH2 0x383 JUMP JUMPDEST SWAP1 POP SWAP2 SWAP1 POP JUMP INVALID LOG2 PUSH5 0x6970667358 0x22 SLT KECCAK256 0xE4 0xB8 TIMESTAMP DUP3 0x22 PUSH10 0xB5739D75776981821CE9 0xA8 PUSH15 0x3AD550E5C08AE893100E8507505064 PUSH20 0x6F6C634300080800330000000000000000000000 "
				},
				"gasEstimates": {
					"creation": {
						"codeDepositCost": "204000",
						"executionCost": "46618",
						"totalCost": "250618"
					},
					"external": {
						"fund()": "2531",
						"getConversionRate()": "188",
						"getPrice()": "infinite",
						"minUSD()": "2451"
					}
				},
				"methodIdentifiers": {
					"fund()": "b60d4288",
					"getConversionRate()": "f36089ec",
					"getPrice()": "98d5fdca",
					"minUSD()": "dc992aa0"
				}
			},
			"storageLayout": {
				"storage": [
					{
						"astId": 51,
						"contract": "contracts/FundMe.sol:FundMe",
						"label": "minUSD",
						"offset": 0,
						"slot": "0",
						"type": "t_uint256"
					},
					{
						"astId": 54,
						"contract": "contracts/FundMe.sol:FundMe",
						"label": "priceFeed",
						"offset": 0,
						"slot": "1",
						"type": "t_contract(AggregatorV3Interface)45"
					}
				],
				"types": {
					"t_contract(AggregatorV3Interface)45": {
						"encoding": "inplace",
						"label": "contract AggregatorV3Interface",
						"numberOfBytes": "20"
					},
					"t_uint256": {
						"encoding": "inplace",
						"label": "uint256",
						"numberOfBytes": "32"
					}
				}
			},
			"userdoc": {
				"kind": "user",
				"methods": {
					"constructor": {
						"notice": "Network: Goerli Aggregator: ETH/USD Address: 0xD4a33860578De61DBAbDc8BFdb98FD742fA7028e"
					}
				},
				"version": 1
			}
		}
	}
}